:020000040800F2
:10000000281100204D020008ED4900083D4200087B
:10001000E949000851210008E951000800000000EA
:10002000000000000000000000000000954A0008E9
:10003000C921000800000000554A0008ED4A0008E8
:1000400067020008670200086702000867020008EC
:1000500067020008670200086702000867020008DC
:1000600067020008670200086702000867020008CC
:100070006702000867020008552100086521000892
:1000800067020008670200086702000867020008AC
:10009000670200086702000867020008670200089C
:1000A000670200086702000867020008670200088C
:1000B000670200086702000867020008670200087C
:1000C000670200086702000867020008670200086C
:1000D00067020008DD510008670200086702000897
:1000E00067020008670200086702000800F002F8D3
:1000F00000F09DF80AA090E8000C82448344AAF125
:100100000107DA4501D100F092F8AFF2090EBAE822
:100110000F0013F0010F18BFFB1A43F0010318473B
:100120004001010060010100103A24BF78C878C185
:10013000FAD8520724BF30C830C144BF04680C60ED
:10014000704700000023002400250026103A28BF35
:1001500078C1FBD8520728BF30C148BF0B60704739
:100160006E2900F07382702900F0A983662908F0D7
:100170005187652908F04E87672908F04B87612968
:1001800008F04A8703681B0A28BF41F080016929EB
:1001900000F02082642900F01D82752900F01A8287
:1001A0006F2900F03783782900F07583E92900F082
:1001B000D182E42900F0CE82F52900F0CB82EF292C
:1001C00000F03483F82900F074830368DB0928BF4A
:1001D00041F08001632901F07781732901F07C816E
:1001E000E32901F08781F32901F08C810020704719
:1001F0001FB59DE8030000F0E5FC01F007FB0400DB
:100200000020002108F0F0FE401C6060002000216A
:1002100008F0D4FEE06001F07DF901F087FF1FBD1A
:1002200010B5002001F036FA01F0DDF910BD01F043
:10023000C8FA1146FFF7DCFF06F000FA01F068FD8E
:1002400003B4FFF7EDFF03BC00F002F90948804753
:1002500009480047FEE7FEE7FEE7FEE7FEE7FEE7A8
:10026000FEE7FEE7FEE7FEE704480549054A064BC0
:1002700070470000654B0008ED00000828090020C9
:1002800028110020280D0020280D00200FB404495B
:1002900010B503AA029800F0EDF910BC5DF814FB4C
:1002A0008C00002010B5002000F0EFFBFFF7B8FF36
:1002B000BDE81040012000F0CBB80B4601461846BF
:1002C00000F0CCBB401ECAB210F8011F8A4202D017
:1002D0000029F9D10020704740EA0103024630B5F9
:1002E0009B0710D14FF0013400E008C208C91D1B64
:1002F0009D4315EAC41FF8D013F0FF0102F8011B5B
:100300000DD01B0AF8E711F8013B002B02F8013B66
:1003100005D011F8013B002B02F8013BF3D130BDB1
:1003200010B5431C02E010F8011B71B18107FAD12E
:100330004FF0013202C88C1A8C4314EAC211F9D072
:10034000C01A0A0603D0C01E10BDC01A10BD0A0490
:1003500001D0801E10BD0902FCD0401E10BD40EA35
:10036000010370B59B072ED14FF00136042A2AD322
:1003700008C810C99D1B9D43121F15EAC61517D04A
:10038000D8B2E1B2401A50EA056110D198B2A1B2D8
:10039000401A50EA05410AD123F07F4024F07F4102
:1003A000401A50EA052102D1180EA0EB146070BD6E
:1003B000A342DBD018BA21BA884201D9012070BD0E
:1003C0004FF0FF3070BD0AB9002070BD10F8013B3E
:1003D00011F8014B63B1A3420AD1521E08D010F8A4
:1003E000013B11F8014B1BB1A34201D1521EEDD1CB
:1003F000181B70BD10B5044610F0030F08BF11F0B4
:10040000030F40F015804FF0013E121FC0F20E8026
:1004100051F8043BA3EB0E0C2CEA030C1CEACE1C97
:1004200008BF40F8043BF0D0A1F1040102F104023E
:10043000521E08DB11F8013B00F8013B002BF7D1FD
:10044000114600F06EFB204610BD704770477047A4
:1004500001491820ABBEFEE72600020000487047A5
:100460003401002070B5064600F08CFB056806F1EB
:100470000B0020F00704B4429CBF002070BD2B4647
:100480006A68BAB11068A04210D304F1080188422A
:100490003CBF5068586007D351681019416011681B
:1004A000091B016058601460101D70BD134652682E
:1004B000002AE7D12146284600F070FB0028DED153
:1004C00070BD70B50446051F00F05CFB0068002C91
:1004D00014BF446870BD002C18BFAC423CBF20461E
:1004E0006468F8D301680A18AA4218BF456003D1AE
:1004F0002A6805461144016028684119A1421CBFC1
:100500006C6070BD6168696021680844286070BDD6
:1005100070B5044685690068C10601D5302600E043
:100520002026C00707D070BDD4E90121304690478E
:10053000206A401C20626D1EF6D570BD70B5044661
:1005400085690078C00707D170BDD4E9012120205A
:100550009047206A401C20626D1EF6D570BD096868
:100560004A0501D540B27047C905FCD500B27047B5
:1005700009684A0501D5C0B27047C905FCD580B2EB
:10058000704770B50C460546012A05D028788006CC
:1005900000D5EA69002302E0012305E05B1C9342D9
:1005A00002D2E05C0028F9D1A869E618C01AA86157
:1005B000286A184428622846FFF7AAFF04E0D5E914
:1005C000012114F8010B9047B442F8D32846FFF7F5
:1005D000B5FF70BD2DE9F04106460024106875296D
:1005E000314616A510D0FFF7BAFF002802DA4042C4
:1005F00013A507E031688A0701D512A502E0490773
:1006000004D511A5012401E0FFF7B2FF00210A2261
:1006100006F1240709E0B0FBF2FCB0FBF2F302FBA9
:100620001C00303078541846491C0028F3D123466A
:100630002A463046BDE8F04100F03FBB0000000014
:100640002D0000002B00000020000000116802684F
:10065000006A530501D508700AE0D30501D508806A
:1006600006E0130603D5C217C1E9000200E00860E6
:1006700001207047074B70B50D467B4400F007FF23
:100680000446284600F042FF10B14FF0FF3070BD25
:10069000204670BD218900002DE9FF5F15468A467E
:1006A0000446DFF8AC80F8440027D8E900103E4645
:1006B000CDE9001010E03AF816106A4602A800F0E2
:1006C000C5FF411C07D02178890603D5E269391896
:1006D00091420DD80744761C2078800602D5E06947
:1006E000B84205DDAE42E6DB3AF816000028E2D15A
:1006F000A069C01BA0612046FFF70AFFD8E90010DF
:10070000CDE90010002017E03AF818106A4602A858
:1007100000F09CFFB0F1FF3F81460BD000250DF1AA
:10072000080B05E0D4E901211BF8050090476D1C7A
:100730004D45F7D308F10100B0428046E4DB206A62
:10074000384420622046FFF7F9FEBDE8FF9F000015
:10075000728900002DE9F0418046D21D22F0070287
:100760000025D2E90002F52915A614D0011E72F168
:10077000000106DA0023D0EB030063EB020211A6AE
:1007800008E0D8F800108B0701D50FA602E0490752
:1007900001D50EA601251146002408F1240704E026
:1007A00000F046FA30323A55641C50EA0102F7D1A3
:1007B0002B46324621464046BDE8F04100F07DBA66
:1007C000000000002D0000002B00000020000000B1
:1007D00030B4002100F1240408E002F00705D2083B
:1007E000303542EA4372DB086554491C52EA03057E
:1007F000F3D10468002310A2250708D504F02004D3
:100800000C4304D0C46901230CA2641EC46130BC33
:1008100000F053BA10B5044621461068FFF7A8FE51
:1008200002462046BDE810400023D1E7D21D22F049
:100830000701D1E90023CBE70000000030000000F1
:10084000F0B40D460188090502D5214C7C4402E034
:100850001F4C7C440E34002100F1240608E002F015
:100860000F071209E75D42EA03721B097754491C1E
:1008700052EA0307F3D102780023120704D5702D42
:1008800006D009B1022311342246F0BC00F015BA9B
:1008900001231034F8E770B504460D462146106870
:1008A000FFF766FE024629462046BDE87040002359
:1008B000C6E7D21D22F00703D3E90023C0E703688F
:1008C000126843F0200303600823C3610023B7E7E5
:1008D000D48700002DE9F05F894604464FF0000AF6
:1008E000DFF874B1FB44C0F820A02046E1688847D7
:1008F000002874D0252806D0D4E901219047206A29
:10090000401C2062F1E700265F462046E1688847E8
:100910002028054607DB312D05D2781910F8200C68
:1009200008B10643F1E7B00701D526F00406C4F884
:100930001CA00027C4F818A02A2D09D0284608F0CA
:1009400027FB38B304EB8708303DC8F8185019E08E
:1009500059F8041B204604EB87029161E16888473F
:10096000012F054618D1E069002820DA26F020067C
:100970001DE0D8F8180000EB800005EB400030388F
:10098000C8F818002046E1688847054608F000FBD3
:100990000028EED1012F0AD02E2D08D12046E16883
:1009A00088477F1C0546022F46F02006C4DBA0695D
:1009B000002803DA404246F00106A061F00701D0AA
:1009C00026F010066C2D0BD0682D09D04C2D39D097
:1009D0006A2D35D0742D35D07A2D33D016E038E01D
:1009E000E1682F4620468847B842054609D16C2F5A
:1009F00026D04FF48060E1680643204688470546CC
:100A000004E06C2F1AD04FF4807006430DB3A5F1AB
:100A10004100192802D8203546F400664A46294686
:100A2000204626604E46FFF79BFB80B101280BD085
:100A3000F61D26F0070000F1080956E74020E4E71C
:100A40008020D8E70020D6E706F104094DE72846C4
:100A500052E7206ABDE8F09F648700002DE9F0416D
:100A6000074615460E461020FFF7FCFC04000AD08E
:100A70006760C4E9026500F089F8016821600460DC
:100A80000020BDE8F0810120FBE710B500F028FE52
:100A9000BDE8104000F01FBE032A40F2308010F085
:100AA000030C00F0158011F8013BBCF1020F624409
:100AB00098BF11F801CB00F8013B38BF11F8013B9A
:100AC000A2F1040298BF00F801CB38BF00F8013B47
:100AD00011F0030300F01C86083AC0F0088051F8BA
:100AE000043B083A51F804CBA0E80810F5E7121DC2
:100AF0005CBF51F8043B40F8043BAFF30080D207E1
:100B000024BF11F8013B11F801CB48BF11F8012BAC
:100B100024BF00F8013B00F801CB48BF00F8012BCF
:100B200070474FF000020429C0F0128010F0030C4F
:100B300000F02286CCF1040CBCF1020F18BF00F8C3
:100B4000012BA8BF20F8022BA1EB0C0100F014BE72
:100B50005FEAC17C24BF00F8012B00F8012B48BFDD
:100B600000F8012B70470000004870473401002056
:100B70007047000010B500F049FE001D10BD00BF19
:100B800069840000004870473C010020004870471D
:100B90006C010020704770477047704738B50446B5
:100BA0000A4600206946AFF30080002808BF38BD20
:100BB00002460099204600F02DFE012038BD01209C
:100BC00001F0CFB8F8B5AFF30080054600200C4621
:100BD000102000BF0646A819A0420DD9324669462A
:100BE0000020AFF30080070008BF01F0BAF80098BA
:100BF000A04218BF0546C419FFF7C4FF05600746A9
:100C0000F01D20F007004619284600F00AF8B4420B
:100C100008BFF8BDA21B31463868BDE8F84000F0B7
:100C2000F9BD00210160C0E9011070471020704734
:100C300030B5B0F10A0271F100034FEA900E4EEAAE
:100C4000817EB0EB0E0061EB91014FEA101E4EEA7F
:100C5000017E10EB0E0041EB11114FEA102E4EEA0F
:100C6000016E10EB0E0041EB11214FEA104E4EEADF
:100C7000014E10EB0E0041EB1141401841F1000113
:100C80004FEAD00040EA41704FEAD1014FEA8104B7
:100C900044EA907410EB800544EB01046D1944EBB9
:100CA0000404521BA3414FF0000348BF0A3200D591
:100CB00030BD401C41F1000130BD2DE9F0470D462B
:100CC00099469246044600F124080168880604D536
:100CD000E06921F01001216000E00120A84201DD5F
:100CE000471B00E00027A1697A1902EB0900081AE6
:100CF000A0612078C00602D42046FFF709FC002638
:100D000008E0D4E901211AF806009047206A401C47
:100D1000761C20624E45F4DB2078C0060AD52046BA
:100D2000FFF7F6FB06E0D4E9012130209047206A66
:100D3000401C2062381EA7F10107F4DC07E0D4E96B
:100D4000012118F805009047206A401C2062281EE7
:100D5000A5F10105F3DC2046FFF7F0FB2078000643
:100D600002D50220BDE8F0870120FBE72DE9FF4F07
:100D70000C461E464FF0FF378BB0D2E90001DDF87C
:100D800060800A908A46C1F30A5505B93D460021A4
:100D900008464FF00000BAF1000F00F4400005DAF9
:100DA00000EB80004FF4400101EA50004FEA9059F7
:100DB000B9F1010F00DDB9460A9850EA4A000ED099
:100DC00044F61050A5F2FF3545432F14B8F1000F3B
:100DD0001ED07542291E1EDDC9F100021CE0B8F1CB
:100DE000010F4FF0000001D0302103E0F24305E095
:100DF0002154401CB042FBDB30460022002121542C
:100E00000B99C1F80880C1E900200FB0BDE8F08F50
:100E1000BD1B6D1CDEE74A4600DA694206A800F0F9
:100E200053FD06AB93E8070003AB83E80700504689
:100E30000A9907F0D0FC8DE80700A0F500501F3894
:100E400000900398002D0ADD42F21F014A46084433
:100E5000002303A90390684607F03AFF09E0A0F5D4
:100E600000504A461F38002303A90390684607F044
:100E700044FF8DE807000004000C03D04FF0FF3062
:100E8000410800E01046B8F1000F03D000220092A4
:100E900015461EE0751E05D4FFF7CAFE30326255B6
:100EA0006D1EF9D5B3460122084302D000227F1CF3
:100EB00004E02078302801D100227F1E002A099703
:100EC00084D01DE0112D07DAFFF7B2FE30326255F3
:100ED0006D1C50EA0102F5D1084302D00098C8B158
:100EE0000EE00021681E05E0235C625C635422541E
:100EF000401E491C8142F7DBAB46A81B401E0990EF
:100F0000002004F80B000B98099AC0F80880C0E98B
:100F1000002B7AE711264FF0000857E72DE9F04F34
:100F200088460446D21D22F0070191B0D1E90001A4
:100F3000CDE90A0108F018F802460B98C00F01D05D
:100F40002D2007E02068810701D52B2002E0202119
:100F500001EAC000032A099001D0072A05DB0346F5
:100F60004146204600F070FC0BE12078800601D558
:100F7000E06900E00620B8F1650F814606D0B8F1BF
:100F8000660F18D0B8F1670F70D131E00020B9F1C9
:100F9000110F009001DB112301E009F101030AAAFE
:100FA00001A90CA8FFF7E2FEDDE90C70002609F1AB
:100FB0000105834647E001204B4600904FF0004773
:100FC0000AAA01A90CA8FFF7D1FEDDE90DB00C9922
:100FD0005D46002610B909F101000D18B9EB0500B6
:100FE00003D4C0F1FF3609F10105A5EB09002BE0A0
:100FF000B9F1010F01DA4FF001090020B9F1110F29
:101000000090484601DD112300E003460AAA01A929
:101010000CA8FFF7ABFEDDE90C704D4600268346B9
:10102000207800070AD4AB4500DA5D4601A8012DFF
:1010300004DD411911F8011C302907D04F4502DAAF
:1010400017F1040F04DA012082460FE06D1EEEE76F
:10105000002F02DCED1B3E4403E0781CA84200DDBB
:101060007D1CB81B00F1010A4FF0004720780007F3
:1010700003D4AA4501DB4FF0FF3A0021B7F1004F3E
:101080000DF143088DF8431024D002202B23002FAC
:1010900001DA7F422D230A21021EA0F1010000DCAB
:1010A0005FB197FBF1FC97FBF1F201FB1C7C17464B
:1010B0000CF1300C08F801CDEEE7A8F10100037047
:1010C0002188090501D5452100E06521A0F101082D
:1010D00000F8011C09980FA9A1EB0807FF1D00B13A
:1010E0000120411901EBEA70A1693844081A401E39
:1010F000A0612078C00602D42046FFF709FA0998BB
:1011000028B1D4E901219047206A401C2062207850
:10111000C00622D52046FFF7FBF91EE0002E04DBB7
:10112000B34502DD01A8805D00E03020D4E9012153
:101130009047206A401C2062761CAAF101005FEAF9
:10114000000A0AD100F062FBC0680168405CD4E983
:1011500001219047206A401C2062281EA5F101054C
:10116000DCDC07E0D4E9012118F8010B9047206A84
:10117000401C2062381EA7F10107F3DC2046FFF770
:10118000DDF9032011B041E62DE9F04F04460D468C
:10119000D21D22F0070089B0D0E9009748463946B1
:1011A00007F0E2FE0246F80F01D02D2307E0206889
:1011B000810701D52B2302E0202101EAC0038DF82D
:1011C00020300BB1012000E00020032A824601D02C
:1011D000072A04DB2946204600F036FB3FE1207851
:1011E000800601D40D2500E0E569C7F30A560D2DF0
:1011F00049DA00214FEA175B08464FF00000002F44
:1012000000F4400007DA00EB80004FF4400100EBEF
:10121000D07001EA60008115012901DD4FF0FF3136
:1012200000224FEA850CBCF1180F06D31346ACF12F
:1012300018004FF08052C24003E04FF4801323FAAD
:101240000CF30CF10C0CBCF1200F04D3ACF1200C0E
:1012500009FA0CF001E007FA0CF000294FF0004801
:1012600001DD18B90FE00ED140450CD319EB02098E
:101270005F4121B9404502D19F4329EA0209BBEBF6
:10128000175F00D0761C2088000502D57B48784483
:1012900002E07A487844193808AA302302F80A3064
:1012A000037C0AF10101002E0AF1020A53546A4636
:1012B00002DC4FF0300101E04FF031014FF0010846
:1012C0008DF8001002D0A6F2FF3603E059EA47017C
:1012D00000D06B4E002D02DC2178090704D54FF0B9
:1012E00002082E218DF80110C44600210BE0C7F33F
:1012F00003433F01C35C491C6D1E02F808300529F9
:1013000008F1010801DA002DF1DC00210CE000EB0E
:101310001973491C1B786D1E082902F808304FEA22
:10132000091908F1010801DA002DF0DC21688B06AB
:1013300002D516E0A8F10108E04505DD02EB08033F
:1013400013F8013C302BF5D0B8F1000F09DD02EBAA
:10135000080313F8013C2E2B03D1090701D4A8F18F
:101360000108002D05DD3E2102F808106D1E08F170
:101370000108407C002E02F8080008F1010804DA98
:101380002D20764202F8080002E02B2002F8080027
:101390000A214FF47A70864208F101080BDB96FBB4
:1013A000F0F3303302F8083096FBF0F308F101084F
:1013B00000FB136601E0642E0CDB642096FBF0F367
:1013C000303302F8083096FBF0F308F1010800FB17
:1013D000136601E00A2E06DB96FBF1F0303002F8CE
:1013E000080008F1010896FBF1F001FB10603030B5
:1013F00002F80800A16908F1010808EB050202EBF8
:101400000A00081AA0612078C00602D42046FFF71F
:101410007FF8216A08AE01EB0A00206204E0D4E9FB
:10142000012116F8010B9047BAF1010AF7D2207892
:10143000C00602D52046FFF76BF86E4609E016F8A5
:10144000010B3E280FD0D4E901219047206A401CAF
:101450002062B8F10108F2D22046FFF76FF809B018
:101460000320BDE8F08F206A2844206203E0D4E91D
:101470000121302090476D1EEBD3F8E7DE7D0000A0
:1014800002FCFFFF01694A1C02610878704700B541
:101490008FB0CDE901310021059105497944CDE9AD
:1014A000031011466846FFF715FA0FB000BD0000A3
:1014B000E5FFFFFF10B5436913B1AFF3008001E012
:1014C000FFF75FF8012010BD127800F124010A70C7
:1014D00000224A700122EDE711684FF0FF32E9E780
:1014E00010B5436913B1AFF3008001E0FFF7D4F802
:1014F000012010BD128800F1240182840022C284E0
:101500000122EDE711684FF0FF32E9E7007B00F0C0
:101510008000704710B54248542100F02BF9414833
:10152000542100F027F94048542100F023F93F49A5
:101530003B483C4A3F4B08603D490A603A491960C4
:10154000531C0365481C1065012008653B48344A5C
:1015500039A1784400F03EFB20B9384878440A3875
:1015600000F0F8FB37482F4A35A1784400F032FBF1
:1015700020B9344878440A3800F0ECFB32482A4A53
:101580002FA1784400F026FB20B92F4878440A3870
:1015900000F0E0FB40232248DC000021224600F05E
:1015A000F6FA20B125487844543800F0D3FB1D48A2
:1015B00022464023002100F0EAFA20B12148784475
:1015C000543800F0C7FB184822461023002100F0D1
:1015D000DEFA002806D01C487844BDE81040563892
:1015E00000F0B8BB10BD104870B5006D20F00104CC
:1015F0000B4800F067FB0B4800F064FB0A4800F062
:1016000061FB09E0206D20F00105204600F05AFB47
:101610002046FEF756FF2C46002CF3D170BD00008B
:10162000380000208C000020E00000200000002096
:101630000400002008000020720000002D7B000044
:1016400077000000197B0000057B00002DE9F041C8
:1016500016460C460546FFF78DFA036893F801011C
:10166000012807D0FF2C12D8185D80B101202C7002
:10167000BDE8F081D3F807013246214603F2071393
:10168000C7182846BC46BDE8F041002360474FF02C
:10169000FF30EDE72DE9F0410646FFF777FA804687
:1016A000454613E016B1E068B0420ED120682860CC
:1016B000D4E90101D8F8007088472046FEF701FF01
:1016C000D8F80000B842EBD100E025462C68002C89
:1016D000E8D1BDE8F081002801D0FEF7B9BE70471F
:1016E00010B5002102A000F01CFB012010BD00007D
:1016F000534947414252543A2041626E6F726D61C4
:101700006C207465726D696E6174696F6E000000A3
:1017100010B5203AC0F00B80B1E81850A0E818507E
:10172000B1E81850A0E81850203ABFF4F5AF5FEACE
:10173000027C24BFB1E81850A0E8185044BF18C973
:1017400018C0BDE810405FEA827C24BF51F8043B1A
:1017500040F8043B08BF7047D20728BF31F8023B6E
:1017600048BF11F8012B28BF20F8023B48BF00F802
:10177000012B70474FF0000200B513469446964681
:10178000203922BFA0E80C50A0E80C50B1F1200194
:10179000BFF4F7AF090728BFA0E80C5048BF0CC042
:1017A0005DF804EB890028BF40F8042B08BF7047A0
:1017B00048BF20F8022B11F0804F18BF00F8012B12
:1017C00070477546FFF7D0F9AE46050069465346A7
:1017D00020F00700854618B020B5FEF745FDBDE8AE
:1017E00020404FF000064FF000074FF000084FF088
:1017F000000BAC46ACE8C009ACE8C009ACE8C009D5
:10180000ACE8C00921F007018D46704700487047D9
:1018100054010020034640688C46002818BF8842C7
:101820003CBF03464068F8D318681844884207D084
:101830000CF1030020F00700001D411A521A014666
:10184000081D0A60FEF73DBE2DE9F0411F46044623
:1018500003260168072A01F4006004DB08B116A51D
:1018600005E016A503E008B115A500E015A521F0D7
:1018700010002060A069C01EA0610FB1401EA061D1
:101880002046FEF745FE4FB1D4E901213846904786
:10189000206A401C2062C01C206206E0206AFAE731
:1018A000D4E9012115F8010B9047761EF8D22046A5
:1018B000FEF744FEBDE8F0814E414E006E616E00C1
:1018C000494E4600696E66002DE9F047814616468E
:1018D0008AB0354878440DC88DE80D003248784408
:1018E000801C03AC0DC884E80D0041F69B30084411
:1018F000372190FBF1F290FBF1F5A5F1800501FB9A
:1019000012041B3C02D56442012000E00020DFF8F5
:1019100098A080460027FA44AAF1BE0A0EE0E0072C
:101920000AD03246684607EB470101230AEB8101E2
:1019300007F0E3F98DE8070064107F1C002CEED15E
:10194000194F7F44AE3F19E0E80715D007EB0410AC
:101950000DF1180A90E80E008AE80E00C068F04207
:1019600001D1981908903246012306A903A807F06F
:10197000C4F903AB83E807006D10641C002DE3D1AC
:101980004FF0010332466946B8F1000F03A802D0B8
:1019900007F09EF901E007F0B0F9C9E90001C9F8C4
:1019A00008200AB0BDE8F087347800002DE9F05F28
:1019B000054617460C46C86820F4201040F4800005
:1019C000C860800602D5084600F02BFBE06841F2B3
:1019D00082014FF0FF3A0140022903D0204600F077
:1019E000BDFAB9E000F42041B1F5004F0FD1C003BA
:1019F00006D56168E06A884200D80846606006E063
:101A00002069E0626060606900F01FFAA061A06870
:101A10000022EEB200280DDAE1688B050AD4C0433B
:101A2000A06041F490302260E0606068411C616019
:101A30000670AAE0E0689146226040F40050E06041
:101A4000206978BB606900F0F2F904F124054FF0D9
:101A50000108A8B1A08910F4407F08D0E069FEF722
:101A600001FD206118B1E06840F4006017E0C4F89F
:101A70001C802561E06820F4407040F480600EE036
:101A8000E069FEF7EFFC00282061F0D0E06840F448
:101A9000006010F4407FE06002D140F48070E060AC
:101AA00020696060E06825696FF0010BC1051ED5F3
:101AB0006168E06A884200D80846411B04D022468B
:101AC000284600F055FAE8BB1FB1E562C4E90159A8
:101AD00059E0681CE0626060E069401EA060E06858
:101AE00040F48030E06030462E70BDE8F09F17B1C2
:101AF00000F480320AE06068411C61600670E068B2
:101B00000A2E40F48030E06006D00022E16A60686E
:101B1000814203D90B4602E00122F7E70346B4F8FD
:101B20000CC05B1B5FEA4C5C04D4D4F81CC09C4521
:101B300000DD02B3814200D80146002BA1EB000872
:101B4000E56200E008E0C4E9015907DD22461946D4
:101B5000284600F00DFA08B15046C6E7B8F1000F6C
:101B600009D0A169E5626560A1EB0800A061E068A9
:101B700040F01000E06047B16168A069E562491B70
:101B800008446560A0615846AFE73046ADE770B5E0
:101B9000C468A50713D0650211D4B2F5807F09D0BF
:101BA000B2F5007F06D0B2F5806F08D1012300F1B5
:101BB000240106E05D1E6FF07F46B54201D301208F
:101BC00070BD0161C361416024F470611143C16063
:101BD000002070BD2DE9F0410C461646070047D0A5
:101BE000104600F06FF82078611C61280AD0722836
:101BF00002D077283CD102E00125002405E002252F
:101C0000042402E0082448F2020511F8010B2B28F5
:101C100006D0622809D011F8010C74280AD00BE014
:101C200045F0030544F00204EFE745F0040544F0F5
:101C30000104EAE744F010043846214600F0D8F8E1
:101C4000411C15D00021316171604FF40071F560C5
:101C5000F1617061200704D530460222002100F0B6
:101C600001F9306D40F0010030653046BDE8F0818B
:101C70000020FBE72DE9F0410D460646104C206D93
:101C8000C10704D0410804D020F00104F7E7224640
:101C90000EE05420FEF7E6FB07000ED0206D47F063
:101CA00001010843542120653846FFF763FD3A4699
:101CB00029463046BDE8F0418CE70020D6E7000019
:101CC000380000202DE9F04704464FF0FF38002689
:101CD000C568D4E90497A80718D0204600F07EF91B
:101CE000384600F08FF8002800DA4646280502D56D
:101CF0004846FEF7E6FB4C212046FFF73BFD206DF2
:101D000020F0010020653046BDE8F0874046FBE743
:101D100010B50446AFF300802046BDE81040FEF742
:101D20008FBA70B505460C460A2000E06D1C00F025
:101D300092F835B128780028F8D102E0641C00F050
:101D40008AF814B120780028F8D1BDE870400A2044
:101D500000F081B810B500F085F9BDE81040FFF73C
:101D6000BABC10B500F098F9BDE81040FFF7B3BC5D
:101D70004FF0013C50F8042B51F8043B9A4221D11A
:101D8000A2EB0C03934313EACC1317D150F8042BA6
:101D900051F8043B9A4215D1A2EB0C03934313EA8A
:101DA000CC130BD150F8042B51F8043B9A4209D1C3
:101DB000A2EB0C03934313EACC13DBD04FF00000EB
:101DC000704700BFD01A01BAB1FA81F101F01801D1
:101DD00022FA01F0CB40DBB2C0B2C01AC1F120013F
:101DE0002CFA01F3D11A914311EAC311E6D17047DD
:101DF0000EB5CDE90001FEF793FA02906946012085
:101E0000ABBE0EBD08B5694600900220ABBE08BD52
:101E10001FB58DE8070069460520ABBE04B010BDB4
:101E20001FB58DE80F0069460620ABBEF6E708B582
:101E3000694600900920ABBE08BD1CB5CDE9000184
:101E400069460A20ABBE1CBD704708B569460090C4
:101E50000C20ABBE08BD08B569468DF80000032014
:101E6000ABBE08BD2DE9F041044616460D46476954
:101E7000007B80072ED03846FFF7D9FF50BB3EB31A
:101E8000012E02D0022E25D104E0204600F02CF9CC
:101E900005441DE03846FFF7D8FFE168002841F00F
:101EA0001001E16005DA204600F058F80120BDE895
:101EB000F081C9030BD56268E16A914200D81146EE
:101EC000A26911442269891A814200DD084605444D
:101ED000002D01DA0220EAE7E16A6068E2688142E7
:101EE00006D29103E06203D522F4003141F01002E2
:101EF000A6690027AE4213DCE16A814201D90B4694
:101F000000E0034603EB060C2369ACEB030CAC4585
:101F100006DD814201D98C4600E084469C4505D10E
:101F2000A760276042F02000A5620DE0AD1BE669C6
:101F3000AE1B8142A66000D90846C01A281A20604C
:101F40005819606022F0200003490840E06000203A
:101F500084F84870ABE70000BFCFD7FFC16821F419
:101F6000001141F08001C160002181600160704773
:101F70002DE9F74F15460C464FF0FF3B3848D76820
:101F8000D2F814A0074209D05046A969FFF755FFBF
:101F9000002819DB3248C0430740EF604FF000498A
:101FA0006FF000484C4501D3464600E026460099B4
:101FB0003B4650463246FFF72BFFA96920F000420E
:101FC000B21A1144A96128B12846FFF7C7FF584645
:101FD000BDE8FE8FA41BE5D10020F9E770B50446EB
:101FE0000569C06A6168884200D80846E16821F442
:101FF0002011E160C90312D5A84208D02246411B36
:102000002846FFF7B5FF10B14FF0FF3070BD00203C
:10201000E562C4E90150E06820F48030E06000200F
:1020200070BD10B50446C06820F02000E060A16AD1
:10203000A06988420DD02046FFF7D0FFE06820F469
:10204000405040F01000E060A06AA0612069E062AA
:10205000606044F24001E0688843E06010BD000029
:102060001000020010B5014602A0FFF75AFE012041
:1020700010BD000053494752545245443A2052651E
:102080006469726563743A2063616E2774206F70AF
:10209000656E3A200000000010B5012805D000212F
:1020A00003A0FFF73EFE012010BD09A1F8E70000E4
:1020B00053494752544D454D3A204F7574206F6631
:1020C0002068656170206D656D6F72790000000099
:1020D0003A2048656170206D656D6F727920636F7D
:1020E000727275707465640010B50146C26890071D
:1020F00003D0900607D5886A0AE0FEF7AFF9012100
:102100000160881E10BD8B69486818440B69C01AAD
:1021100091F848301BB191F84910401A10BD1103D5
:10212000FCD50028FADD401E10BD000070B5064C3D
:102130007C44064D7D4404E0204601680844804705
:10214000241DAC42F8D170BD78E2000078E20000B6
:10215000FFE7FEE780B540F25C30C2F2000000F01D
:10216000FBF880BD80B540F21830C2F2000000F0EC
:10217000F3F880BD84B0039002910192009303981C
:10218000C16B006C012202FA00F0486000980399CC
:102190000968486003984068102809D1FFE7019852
:1021A000039909688860029803990968C86008E083
:1021B0000298039909688860019803990968C860C2
:1021C000FFE704B0704700007047000081B0EFF3F4
:1021D000108072B60090FFE7FEE7000083B0019028
:1021E00000208DF80300019890F8210002280DD0FE
:1021F000FFE7019804218163FFE70198002180F83F
:102200002010FFE701208DF80B0022E00198006804
:10221000016821F00E01016001980068016821F059
:10222000010101600198C16B006C012202FA00F00B
:102230004860FFE70198012180F82110FFE701982D
:10224000002180F82010FFE79DF803008DF80B00B7
:10225000FFE703B07047000080B582B00190002016
:102260008DF80300019890F82100022807D0FFE7BD
:1022700001980421816301208DF8030067E0019833
:102280000068016821F00E01016001980068016892
:1022900021F001010160019800680821C4F20201E7
:1022A000884202D1FFE701203AE0019800681C2132
:1022B000C4F20201884202D1FFE710202FE001980A
:1022C00000683021C4F20201884203D1FFE74FF4D5
:1022D000807023E0019800684421C4F20201884222
:1022E00003D1FFE74FF4805017E0019800685821B0
:1022F000C4F20201884203D1FFE74FF480300BE0C3
:10230000019801686C22C4F202024FF08070914281
:1023100008BF4FF48010FFE7FFE7FFE7FFE7FFE7A5
:102320000421C4F2020108600198012180F8211003
:10233000FFE70198002180F82010FFE70198406B2B
:1023400020B1FFE70198416B8847FFE7FFE79DF861
:10235000030002B080BD000080B584B003900398F4
:10236000C06B0068029003980068006801900298B2
:102370000399096CC8404007002866D5FFE79DF81F
:1023800004004007002860D5FFE703980068006854
:102390008006002807D4FFE703980068016821F051
:1023A00004010160FFE7039800680821C4F20201FC
:1023B000884202D1FFE704203AE0039800681C211C
:1023C000C4F20201884202D1FFE740202FE00398C7
:1023D00000683021C4F20201884203D1FFE74FF4C4
:1023E000806023E0039800684421C4F2020188421F
:1023F00003D1FFE74FF4804017E0039800685821AD
:10240000C4F20201884203D1FFE74FF480200BE0C1
:10241000039801686C22C4F202024FF0806091427E
:1024200008BF4FF48000FFE7FFE7FFE7FFE7FFE7A4
:102430000421C4F2020108600398C06A20B1FFE7DA
:102440000398C16A8847FFE7A8E002980399096CDE
:10245000C8408007002870D5FFE79DF8040080077A
:1024600000286AD5FFE70398006800688006002806
:102470000BD4FFE703980068016821F00A010160AE
:102480000398012180F82110FFE7039800680821D4
:10249000C4F20201884202D1FFE702203AE0039829
:1024A00000681C21C4F20201884202D1FFE720200B
:1024B0002FE0039800683021C4F20201884203D162
:1024C000FFE74FF4007023E0039800684421C4F252
:1024D0000201884203D1FFE74FF4005017E0039850
:1024E00000685821C4F20201884203D1FFE74FF48B
:1024F00000300BE0039801686C22C4F202024FF036
:102500000070914208BF4FF40010FFE7FFE7FFE7BC
:10251000FFE7FFE70421C4F202010860FFE7039828
:10252000002180F82010FFE70398806A20B1FFE7C0
:102530000398816A8847FFE72FE002980399096CA6
:10254000C8400007002827D5FFE79DF804000007D2
:10255000002821D5FFE703980068016821F00E01EB
:1025600001600398C16B006C012202FA00F0486020
:1025700003988263039880F82120FFE703980021E5
:1025800080F82010FFE70398006B20B1FFE7039865
:10259000016B8847FFE7FFE7FFE7FFE704B080BD77
:1025A00083B0019000200090019820B9FFE701203E
:1025B0008DF80B0047E0019801684FF6F872CBF6F2
:1025C000FD7211444CF6CD42CCF6CC42A1FB021276
:1025D0006FF0030101EA9201016401980021C4F245
:1025E0000201C1630198022180F82110019800685E
:1025F00000680090009843F6F071884300900198BD
:10260000D0F804C08268C368016942EA0C021A4328
:1026100011434269114382691143C069084300991B
:10262000084300900098019909680860019800210A
:1026300081630198012280F82120019880F8201000
:102640008DF80B10FFE79DF80B0003B070470000FA
:1026500080B586B0049003910292019300208DF81A
:102660000300FFE7049890F82000012804D1FFE759
:1026700002208DF817004CE00498012180F820100A
:10268000FFE7FFE7049890F82100012832D1FFE727
:102690000498022180F82110049800218163049895
:1026A0000068016821F00101016004980399029A11
:1026B000019BFFF75FFD0498C06A38B1FFE70498FB
:1026C0000068016841F00E0101600CE004980068A8
:1026D000016821F00401016004980068016841F07C
:1026E0000A010160FFE704980068016841F00101F8
:1026F000016009E0FFE70498002180F82010FFE75F
:1027000002208DF80300FFE79DF803008DF8170005
:10271000FFE706B080BD000080B584B0039000F0F4
:10272000A9F90290039801900198013020B1FFE7C8
:10273000019801300190FFE7FFE700F09BF9029953
:10274000401A0199884201D2FFE7F6E704B080BD44
:102750008AB009900891002007900390FFE708983D
:1027600000680799C840002800F06A81FFE70798D1
:10277000012101FA00F006900898006806990840C7
:10278000059005980699884240F05681FFE7089821
:102790004068002846D0FFE7012830D0FFE7022834
:1027A00036D0FFE7032857D0FFE711282BD0FFE7EB
:1027B000122832D0FFE70021C1F21101884231D046
:1027C000FFE70021C1F2120188422BD0FFE7002170
:1027D000C1F22101884225D0FFE70021C1F2220188
:1027E00088421FD0FFE70021C1F23101884219D091
:1027F000FFE70021C1F23201884213D02FE0089890
:10280000C06803902CE00898C0680430039027E06B
:102810000898C0680830039022E00898C0680C301F
:1028200003901DE00898806818B9FFE70420039022
:1028300011E008988068012806D1FFE7082003907E
:1028400006980999086105E00820039006980999FF
:102850004861FFE7FFE703E00020039000E0FFE7A7
:102860000598FF2802D8FFE7099802E0099804308C
:10287000FFE702900598FF2803D8FFE7079880003C
:1028800005E007986FF01F0101EB8000FFE7019062
:102890000298006801990F228A409043039A02FA35
:1028A00001F10843029908600898C079C006002821
:1028B00040F1C180FFE7FFE741F21800C4F20200D7
:1028C000016841F001010160006800F00100009022
:1028D0000098FFE7079820F003000821C4F20101E7
:1028E00040580490079800F0030080000F2101FA7F
:1028F00000F0049921EA00000490099840F60001D4
:10290000C4F20101884202D1FFE700201FE00998CC
:1029100040F60041C4F20101884202D1FFE70120E4
:1029200014E0099841F20001C4F20101884202D189
:10293000FFE7022009E0099941F20042C4F20102D6
:102940000420914208BF0320FFE7FFE7FFE7079954
:1029500001F0030189008840049908430490049819
:10296000079921F003010822C4F201028850089857
:102970008079C006002809D5FFE7059840F2084194
:10298000C4F201010A681043086009E0059840F2AA
:102990000841C4F201010A6822EA00000860FFE76A
:1029A000089880798006002809D5FFE7059840F24D
:1029B0000C41C4F201010A681043086009E005985F
:1029C00040F20C41C4F201010A6822EA00000860EA
:1029D000FFE7089880798007002809D5FFE7059868
:1029E00040F20441C4F201010A681043086009E0A2
:1029F000059840F20441C4F201010A6822EA00008D
:102A00000860FFE708988079C00748B1FFE705989C
:102A100040F20041C4F201010A681043086009E075
:102A2000059840F20041C4F201010A6822EA000060
:102A30000860FFE7FFE7FFE70798013007908EE6A1
:102A40000AB0704782B00190ADF802108DF80120F5
:102A50009DF8010028B1FFE7BDF802000199086167
:102A600005E0BDF80200000401990861FFE702B02B
:102A70007047000040F62010C2F200000068704766
:102A800080B584B040F2A030C2F2000002900298FB
:102A900020B9FFE701208DF80F002AE1029890F895
:102AA0003D0040B9FFE70298002180F83C100298F1
:102AB00000F02EFAFFE70298242180F83D100298DA
:102AC0000068016821F00101016002980068016856
:102AD00041F40041016002980068016821F400415E
:102AE000016000F031FC00900298406848F2A0615B
:102AF000C0F2010188420AD8FFE7009948F28042FB
:102B0000C0F21E020020914238BF012009E0009966
:102B100040F60012C0F23D020020914238BF012071
:102B2000FFE7012804D1FFE701208DF80F00E0E066
:102B300000984DF68361C4F21B31A0FB0101880CA3
:102B4000019002980068406820F03F000199084316
:102B500002990968486002980068006A20F03F0006
:102B60000299496848F2A062C0F20102914203D87A
:102B7000FFE7019901310DE001994FF4967251433D
:102B800044F6D352C1F26202A1FB0212012101EB11
:102B90009211FFE7084302990968086202980068E9
:102BA000C0694CF6FF7188430299496848F2A062F7
:102BB000C0F2010291421BD8FFE700990139029A45
:102BC00052685200B1FBF2F101316FF31F3103295A
:102BD00002D8FFE704210AE000990139029A5268FD
:102BE0005200B1FBF2F101316FF31F31FFE742E018
:102BF0000299896861B9FFE700990139029A526820
:102C000002EB4202B1FBF2F101316FF31F310CE034
:102C100000990139029A526819235A43B1FBF2F123
:102C20000131042262F31F31FFE7090511B9FFE703
:102C300001211FE00299896861B9FFE70099013914
:102C4000029A526802EB4202B1FBF2F101316FF3DA
:102C50001F310CE000990139029A526819235A4336
:102C6000B1FBF2F10131042262F31F31FFE741F4BD
:102C70000041FFE7FFE7084302990968C86102982D
:102C80000068006820F0C00002990A68CB69096AF0
:102C900019430843106002980068806848F2FF31C9
:102CA000884302990A68CB68096919430843906010
:102CB00002980068C06820F0FF0002990A684B691A
:102CC000896919430843D06002980068016841F09F
:102CD000010101600298002101640298202280F81D
:102CE0003D2002980163029880F83E108DF80F1085
:102CF000FFE79DF80F0004B080BD000080B58AB0EA
:102D000040F2A032C2F200020892ADF81E0040F27A
:102D1000B810C2F200000690ADF816104FF47A70A9
:102D20000490FFF7A7FE0390089890F83D00202834
:102D300040F0E880FFE70898039900910221C0F273
:102D400010010122192301F08BFB20B1FFE70220C3
:102D50008DF82700DAE0FFE7089890F83C0001289A
:102D600004D1FFE702208DF82700CFE00898012169
:102D700080F83C10FFE7FFE7089800680068C0078C
:102D800038B9FFE708980068016841F00101016067
:102D9000FFE708980068016821F400610160089865
:102DA000212180F83D100898102180F83E100898E5
:102DB00000210164069808994862BDF81600089938
:102DC00048850898408D0899088508980021CFF615
:102DD000FF71C1620898BDF81E10049A039B01F0B0
:102DE00061FA20B1FFE701208DF827008EE0FFE7B0
:102DF00000200290089800684069029008980068D6
:102E0000806902900298FFE7FFE70898008D00288C
:102E100060D0FFE708980499039A01F043FC80B161
:102E2000FFE70898006C042807D1FFE708980068BE
:102E3000016841F400710160FFE701208DF827006F
:102E400064E008980168406A007808610898416A5F
:102E5000013141620898418D013941850898018D01
:102E60000139018508980068406900F004000121DB
:102E7000B1EB900F16D1FFE70898008D90B1FFE7F6
:102E800008980168406A007808610898416A013131
:102E900041620898418D013941850898018D0139B9
:102EA0000185FFE708980499039A01F083FA80B13D
:102EB000FFE70898006C042807D1FFE7089800682E
:102EC000016841F400710160FFE701208DF82700DF
:102ED0001CE09AE708980068016841F400710160FD
:102EE0000898202180F83D100898002180F83E10B5
:102EF000FFE70898002180F83C10FFE700208DF8DC
:102F0000270003E002208DF82700FFE70AB080BD0C
:102F100080B588B00790002006900590049003903B
:102F20000798006845F60001C4F2000188422DD1DF
:102F3000FFE7FFE741F21800C4F20200016841F028
:102F400008010160006800F0080002900298FFE7A5
:102F50004FF440600390122004900320069040F646
:102F60000040C4F2010003A9FFF7F2FBFFE741F2C2
:102F70001C00C4F20200016841F480010160006895
:102F800000F4800001900198FFE7FFE708B080BDE2
:102F900040F62010C2F20000016801310160704764
:102FA00080B542F20000C4F20200016841F0100155
:102FB000016000F08DF80F2000F004F800F034F804
:102FC00080BD000080B582B0009040F20C00C2F2DB
:102FD0000000006844F6D351C1F26201A0FB010178
:102FE000880900F06BFD20B1FFE701208DF8070094
:102FF00017E000980F280CD8FFE700994FF0FF303A
:1030000000F04EF8009840F23001C2F20001086072
:1030100003E001208DF8070003E000208DF8070091
:10302000FFE702B080BD000083B0FFE741F2180067
:10303000C4F20200016841F001010160006800F083
:10304000010002900298FFE7FFE741F21C00C4F282
:103050000200016841F080510160006800F080507A
:1030600001900198FFE7FFE70420C4F20100016826
:103070000091009921F0E0610091009941F0007108
:10308000009100990160FFE703B0704780B582B0FE
:103090008DF807009DF9070003F002FA02B080BD29
:1030A00010B584B08DF80F000291002001900090BF
:1030B00003F010FA00909DF90F4000980299019AD0
:1030C00001F096FC0146204603F00CFA04B010BD56
:1030D00080B582B003200190019803F025FA02B078
:1030E00080BD000080B584B002900220019002985B
:1030F00020B9FFE701208DF80F001BE1019842F293
:103100000001C4F20201096801F00701884216D9E2
:10311000FFE742F20000C4F20200016821F007015B
:10312000019A11430160006800F00700019988428C
:1031300004D0FFE701208DF80F00FBE0FFE70298C5
:103140000078800700282AD5FFE70298007840071A
:10315000002809D5FFE741F20400C4F2020001682B
:1031600041F4E0610160FFE7029800780007002861
:1031700009D5FFE741F20400C4F20200016841F4FE
:1031800060510160FFE741F20400C4F202000168EF
:1031900021F0F001029A926811430160FFE7029862
:1031A0000078C007002860D0FFE702984068012837
:1031B0000ED1FFE741F20000C4F202000068800374
:1031C000002804D4FFE701208DF80F00B2E021E0D1
:1031D0000298406802280ED1FFE741F20000C4F2D5
:1031E000020000688001002804D4FFE701208DF868
:1031F0000F009FE00DE041F20000C4F20200006801
:103200008007002804D4FFE701208DF80F0091E02B
:10321000FFE7FFE741F20400C4F20200016821F079
:103220000301029A526811430160FFF723FC0090EA
:10323000FFE741F20400C4F20200006800F00C0055
:1032400002994968B0EB810F0ED0FFE7FFF712FC3F
:103250000099401A41F28931884204D3FFE70320E4
:103260008DF80F0066E0E4E7FFE7019842F2000105
:10327000C4F20201096801F00701884216D2FFE793
:1032800042F20000C4F20200016821F00701019A35
:1032900011430160006800F007000199884204D0E2
:1032A000FFE701208DF80F0044E0FFE70298007867
:1032B000400700280CD5FFE741F20400C4F20200E9
:1032C000016821F4E061029AD26811430160FFE7CE
:1032D00002980078000700280DD5FFE741F20400AE
:1032E000C4F20200016821F46051029A126941EAB5
:1032F000C2010160FFE700F04BF841F20401C4F2A3
:1033000002010968C9B2090949F22822C0F600027F
:10331000515CC84040F20C01C2F20001086040F26A
:103320003000C2F200000068FFF74CFE00208DF86C
:103330000F00FFE79DF80F0004B080BD40F20C00C5
:10334000C2F200000068704780B5FFF7F7FF41F256
:103350000401C4F202010968C1F3022149F23822D2
:10336000C0F60002515CC84080BD000080B5FFF788
:10337000E5FF41F20401C4F202010968C1F3C22170
:1033800049F23822C0F60002515CC84080BD0000FE
:1033900085B000200490039002900190009041F2CB
:1033A0000400C4F2020000680490049800F00C00CD
:1033B000E8B3FFE7042803D0FFE7082806D037E08A
:1033C00042F20040C0F2F400009037E00498C0F3ED
:1033D000834049F21821C0F60001085C01909DF875
:1033E0001200C007C0B1FFE741F20400C4F20200BE
:1033F0000068C0F3404049F22411C0F60001085CA7
:103400000390019842F20041C0F2F401484303994D
:10341000B0FBF1F0029007E0019840F60011C0F215
:103420003D0148430290FFE70298009006E0FFE765
:1034300041F20020C0F27A000090FFE7009805B04A
:103440007047000080B586B00490049820B9FFE76B
:1034500001208DF817002DE304980078C00700289C
:1034600000F0AE80FFE741F20400C4F20200006801
:1034700000F00C00042813D0FFE741F20400C4F26E
:103480000200006800F00C0008281BD1FFE741F2A1
:103490000400C4F202000068C003002812D5FFE750
:1034A00041F20000C4F2020000688003002808D541
:1034B000FFE70498406820B9FFE701208DF8170066
:1034C000F8E27CE0FFE704984068B0F5803F09D15E
:1034D000FFE741F20000C4F20200016841F48031CC
:1034E000016032E00498406868B9FFE741F20000EB
:1034F000C4F20200016821F480310160016821F406
:103500008021016020E004984068B0F5A02F0DD123
:10351000FFE741F20000C4F20200016841F480219B
:103520000160016841F4803101600CE041F200006B
:10353000C4F20200016821F480310160016821F4C5
:1035400080210160FFE7FFE7FFE7FFE7049840689D
:10355000D0B1FFE7FFF78EFA0390FFE741F20000DA
:10356000C4F202000068800300280CD4FFE7FFF7D4
:1035700081FA0399401A652804D3FFE703208DF8E8
:10358000170097E2EAE719E0FFF774FA0390FFE704
:1035900041F20000C4F202000068800300280CD54C
:1035A000FFE7FFF767FA0399401A652804D3FFE79E
:1035B00003208DF817007DE2EAE7FFE7FFE7FFE76A
:1035C000049800788007002840F18D80FFE741F2E1
:1035D0000400C4F20200006810F00C0F13D0FFE7E3
:1035E00041F20400C4F20200006800F00C00082858
:1035F00029D1FFE741F20400C4F202000068C003D1
:10360000002820D4FFE741F20000C4F20200006865
:103610008007002809D5FFE704980069012804D035
:10362000FFE701208DF8170044E241F20000C4F2E8
:103630000200016821F0F801049A526941EAC201CE
:103640000160FFE74EE00498006958B3FFE70020EF
:10365000C4F2422001210160FFF70CFA0390FFE75A
:1036600041F20000C4F202000068800700280CD478
:10367000FFE7FFF7FFF90399401A032804D3FFE798
:1036800003208DF8170015E2EAE741F20000C4F2CA
:103690000200016821F0F801049A526941EAC2016E
:1036A00001601EE00020C4F2422000210160FFF70B
:1036B000E1F90390FFE741F20000C4F20200006864
:1036C000800700280CD5FFE7FFF7D4F90399401ACB
:1036D000032804D3FFE703208DF81700EAE1EAE7A7
:1036E000FFE7FFE7FFE7049800780007002847D5C9
:1036F000FFE70498806910B3FFE740F28040C4F20E
:10370000422001210160FFF7B5F90390FFE741F284
:103710002400C4F202000068800700280CD4FFE7F0
:10372000FFF7A8F90399401A032804D3FFE7032001
:103730008DF81700BEE1EAE701F08EF91FE040F2D4
:103740008040C4F2422000210160FFF793F903900A
:10375000FFE741F22400C4F202000068800700285D
:103760000CD5FFE7FFF786F90399401A032804D325
:10377000FFE703208DF817009CE1EAE7FFE7FFE78A
:10378000049800784007002840F1D880FFE7002027
:103790008DF8070041F21C00C4F202000068C0006E
:1037A000002813D4FFE7FFE741F21C00C4F2020037
:1037B000016841F080510160006800F08050009085
:1037C0000098FFE701208DF80700FFE747F20000AF
:1037D000C4F200000068C005002822D4FFE747F2C9
:1037E0000000C4F20000016841F480710160FFF73D
:1037F00041F90390FFE747F20000C4F200000068BF
:10380000C00500280CD4FFE7FFF734F90399401AEC
:10381000652804D3FFE703208DF817004AE1EAE7A3
:10382000FFE7FFE70498C068012809D1FFE741F2EC
:103830002000C4F20200016841F00101016031E0A2
:103840000498C06868B9FFE741F22000C4F20200A2
:10385000016821F001010160016821F004010160AB
:103860001FE00498C06805280DD1FFE741F2200051
:10387000C4F20200016841F004010160016841F0F6
:10388000010101600CE041F22000C4F20200016875
:1038900021F001010160016821F004010160FFE7EE
:1038A000FFE7FFE7FFE70498C068E0B1FFE7FFF735
:1038B000E1F80390FFE741F22000C4F20200006843
:1038C000800700280ED4FFE7FFF7D4F80399401AC9
:1038D00041F28931884204D3FFE703208DF81700B5
:1038E000E8E0E8E71BE0FFF7C5F80390FFE741F2E7
:1038F0002000C4F202000068800700280ED5FFE710
:10390000FFF7B8F80399401A41F28931884204D38D
:10391000FFE703208DF81700CCE0E8E7FFE79DF80C
:103920000700012809D1FFE741F21C00C4F20200A0
:10393000016821F080510160FFE7FFE70498C0694A
:10394000002800F0B380FFE741F20400C4F2020057
:10395000006800F00C00082800F08280FFE704985F
:10396000C06902285CD1FFE76020C4F24220002138
:103970000160FFF77FF80390FFE741F20000C4F217
:1039800002000068800100280CD5FFE7FFF772F8FD
:103990000399401A032804D3FFE703208DF817008A
:1039A00088E0EAE70498006AB0F5803F0CD1FFE7B1
:1039B00041F20400C4F20200016821F40031049ACB
:1039C000926811430160FFE741F20400C4F2020073
:1039D000016821F47411049A136A526A1A4311435C
:1039E00001606020C4F2422001210160FFF742F82B
:1039F0000390FFE741F20000C4F20200006880017A
:103A000000280CD4FFE7FFF735F80399401A032884
:103A100004D3FFE703208DF817004BE0EAE71EE030
:103A20006020C4F2422000210160FFF723F80390D8
:103A3000FFE741F20000C4F20200006880010028A4
:103A40000CD5FFE7FFF716F80399401A032804D3B3
:103A5000FFE703208DF817002CE0EAE7FFE724E0FA
:103A60000498C069012804D1FFE701208DF81700F0
:103A700020E041F20400C4F20200006802900298C3
:103A800000F480300499096A884208D1FFE702985F
:103A900000F470100499496A884204D0FFE70120BD
:103AA0008DF8170006E0FFE7FFE7FFE700208DF83D
:103AB0001700FFE79DF8170006B080BD80B582B003
:103AC0000190019800F0E8FF02B080BD82B0019043
:103AD000ADF8021002B0704780B584B040F2F43007
:103AE000C2F2000003900020029003980068406931
:103AF000C0B2C0090290039890F84100212823D158
:103B0000FFE7029800B3FFE7FFE7FFE703980068CD
:103B100050E8050F20F080000190FFE7019803991D
:103B2000096841E80502002AF0D1FFE7FFE70398A2
:103B3000806B28B1FFE70398806BFEF74FFBFFE730
:103B4000039801F04FF9FFE7039800684069C0F35C
:103B500080100290039890F84200222823D1FFE7BA
:103B6000029800B3FFE7FFE7FFE70398006850E81B
:103B7000050F20F040000090FFE7009803990968C6
:103B800041E80502002AF0D1FFE7FFE70398C06B88
:103B900028B1FFE70398C06BFEF720FBFFE703980F
:103BA00001F0C4F8FFE704B080BD000081B00090D0
:103BB00001B0704780B592B040F2F430C2F200001C
:103BC0001190119800680068109011980068C06802
:103BD0000F901198006840690E9000200D900C9095
:103BE000109800F00F000D900D9888B9FFE79DF830
:103BF0004000800600280AD5FFE79DF83C008006BB
:103C0000002804D5FFE7119801F008F9E9E1FFE782
:103C10000D98002800F0C280FFE79DF83800C0072B
:103C200038B9FFE7BDF83C0010F4907F00F0B68093
:103C3000FFE79DF84000C00758B1FFE79DF83D0041
:103C4000C00730B1FFE71198416C41F001014164B8
:103C5000FFE79DF84000400700280BD5FFE79DF8DF
:103C60003800C00730B1FFE71198416C41F0020104
:103C70004164FFE79DF84000800700280BD5FFE76F
:103C80009DF83800C00730B1FFE71198416C41F052
:103C900004014164FFE79DF840000007002811D5AA
:103CA000FFE79DF83C008006002805D4FFE79DF85B
:103CB0003800C00730B1FFE71198416C41F00801AE
:103CC0004164FFE71198406C002866D0FFE79DF83B
:103CD0004000800600280AD5FFE79DF83C008006DA
:103CE000002804D5FFE7119801F098F8FFE7119834
:103CF00000684069C0F380100C901198406C000778
:103D0000002804D4FFE70C9800283ED0FFE7119864
:103D100001F00CF8119800684069400600282FD582
:103D2000FFE7FFE7FFE71198006850E8050F20F074
:103D300040000B90FFE70B981199096841E80502D4
:103D4000002AF0D1FFE7FFE71198C06B98B1FFE7B9
:103D50001198C06B44F66931C0F6000141631198B7
:103D6000C06BFEF779FA28B1FFE71198C06B416B81
:103D70008847FFE703E01198FFF718FFFFE703E02C
:103D80001198FFF713FFFFE706E01198FFF70EFF0A
:103D9000119800214164FFE7FFE722E11198006BD1
:103DA000012840F0FE80FFE79DF84000C006002893
:103DB00040F1F780FFE79DF83C00C006002840F185
:103DC000F080FFE7FFE700200A9011980068006884
:103DD0000A901198006840680A900A98FFE71198C5
:103DE000006840694006002840F18180FFE7119893
:103DF000C06B00684068ADF82600BDF826000028BA
:103E000074D0FFE7BDF826001199898D88426DDADC
:103E1000FFE7BDF826001199C8851198C06B80692D
:103E2000202858D0FFE7FFE7FFE71198006850E827
:103E3000030F20F480700890FFE708981199096833
:103E400041E80302002AF0D1FFE7FFE7FFE7FFE7C1
:103E50001198006850E8050F20F001000790FFE777
:103E600007981199096841E80502002AF0D1FFE797
:103E7000FFE7FFE7FFE71198006850E8050F20F023
:103E800040000690FFE706981199096841E805028D
:103E9000002AF0D1FFE7FFE71198202180F84210B7
:103EA000119800210163FFE7FFE71198006850E8CF
:103EB000030F20F010000590FFE70598119909689D
:103EC00041E80302002AF0D1FFE7FFE71198C06B39
:103ED000FEF784F9FFE71198022141631198818D63
:103EE000C28D891A89B2FFF7F1FDFFE779E01198D9
:103EF000818DC08D081AADF812001198C08D002870
:103F00004ED0FFE7BDF81200002849D0FFE7FFE7D9
:103F1000FFE71198006850E8030F20F490700390B9
:103F2000FFE703981199096841E80302002AF0D1DC
:103F3000FFE7FFE7FFE7FFE71198006850E8050F8C
:103F400020F001000290FFE702981199096841E80A
:103F50000502002AF0D1FFE7FFE71198202180F841
:103F60004210119800210163FFE7FFE711980068F4
:103F700050E8030F20F010000190FFE7019811991D
:103F8000096841E80302002AF0D1FFE7FFE7119832
:103F9000022141631198BDF81210FFF797FDFFE76A
:103FA0001FE09DF84000000600280AD5FFE79DF8B5
:103FB0003C000006002804D5FFE7119801F0C6F880
:103FC0000FE09DF84000400600280AD5FFE79DF865
:103FD0003C004006002804D5FFE7119800F0F0FEF1
:103FE000FFE712B080BD000080B582B040F2F4302F
:103FF000C2F200000090009820B9FFE701208DF880
:10400000070040E00098806908B1FFE700E0FFE7A3
:10401000009890F8410040B9FFE70098002180F82F
:104020004010009800F034F8FFE70098242180F851
:10403000411000980068C16821F40051C1600098E7
:1040400000F0A0FF00980068016921F4904101612F
:1040500000980068416921F02A01416100980068D8
:10406000C16841F40051C16000980021416400988A
:10407000202280F84120009880F842200098416377
:104080008DF80710FFE79DF8070002B080BD000023
:1040900070B588B0079000200690059004900390BA
:1040A0000798006843F60001C4F20101884240F01D
:1040B0008580FFE7FFE741F21800C4F202000168C3
:1040C00041F480410160006800F480400290029851
:1040D000FFE7FFE741F21800C4F20200016841F077
:1040E00004010160006800F0040001900198FFE7FE
:1040F0004FF400700390022004900320069040F6D5
:104100000004C4F2010403AD20462946FEF720FB5B
:104110004FF48060039000260496059620462946B9
:10412000FEF716FB40F25C30C2F200004421C4F2FC
:10413000020101601021416086608021C16006613A
:1041400046618661C661FEF72BFA18B1FFE7FEF7FC
:104150003DF8FFE7FFE7079840F25C31C2F200014B
:10416000816307984862FFE740F21830C2F200000E
:104170005821C4F202010160002141608160802267
:10418000C260016141618161C161FEF709FA18B144
:10419000FFE7FEF71BF8FFE7FFE7079840F218314B
:1041A000C2F20001C16307984862FFE725200021A1
:1041B000FEF776FF2520FEF769FFFFE708B070BD28
:1041C00010B584B040F2F430C2F20000029040F624
:1041D000DD00C2F2000001904020ADF8020002981C
:1041E00090F84200202817D1FFE7019820B1FFE79F
:1041F000BDF8020020B9FFE701208DF80F000FE0A5
:1042000002980024046302980199BDF8022000F08E
:1042100017FF8DF80F4003E002208DF80F00FFE735
:1042200004B010BD81B0009001B0704781B0009023
:1042300001B0704781B0009001B07047FFE7FEE722
:1042400082B0009000980068406900F4806001210D
:10425000B1EB902F1ED1FFE7009800686FF48061EA
:1042600041610098002101630098202280F83D20E0
:10427000009880F83E100098016C41F00401016440
:10428000FFE70098002180F83C10FFE701208DF83F
:10429000070003E000208DF80700FFE79DF8070006
:1042A00002B0704780B588B00690ADF81610049241
:1042B00003930698C06A02900298082809D0FFE785
:1042C0000298012805D0FFE7029810F5803F07D13A
:1042D000FFE706980068016841F4807101600DE015
:1042E0000698006B122807D1FFE70698006801685E
:1042F00041F48071016000E0FFE7FFE70698049B4E
:10430000039900914FF00111002200F0A9F880B14B
:10431000FFE7069800680068C005002805D5FFE79C
:1043200006984FF400710164FFE703208DF81F0029
:104330003CE006980069B0F5804F08D1FFE7BDF872
:10434000160000F0FE000699096808611CE0BDF83F
:10435000160000F44070C009F03006990968086141
:104360000698049A039B0821C0F2010100F0F6F8B8
:1043700020B1FFE701208DF81F0017E09DF816001F
:10438000069909680861FFE70698049A039B0221D1
:10439000C0F2010100F0E2F820B1FFE701208DF842
:1043A0001F0003E000208DF81F00FFE79DF81F00AD
:1043B00008B080BD80B584B0029001910092FFE703
:1043C00002980068406900F004000021B1EB900FF2
:1043D0003ED1FFE70298FFF733FF20B1FFE701204E
:1043E0008DF80F0038E00198013080B3FFE7FEF749
:1043F00041FB0099401A0199884203D8FFE70198D0
:1044000020BBFFE702980068406900F0040000212B
:10441000B1EB900F19D1FFE70298002101630298D8
:10442000202280F83D20029880F83E100298016C0E
:1044300041F020010164FFE70298002180F83C1060
:10444000FFE701208DF80F0006E0FFE7FFE7B7E781
:1044500000208DF80F00FFE79DF80F0004B080BD2D
:1044600080B586B0DDF820C0049003918DF80B2054
:104470000193FFE79DF80E0001280BD1FFE7049898
:1044800000684069BDF80C100840401AB0FA80F08E
:1044900040090AE0049800688069BDF80C100840E3
:1044A000401AB0FA80F04009FFE79DF80B108842EF
:1044B0004CD1FFE701980130002846D0FFE7FEF716
:1044C000D9FA0899401A0199884203D8FFE7019860
:1044D000D0BBFFE79DF80E0001280BD1FFE7049841
:1044E00000684069BDF80C100840401AB0FA80F02E
:1044F00040090AE0049800688069BDF80C10084083
:10450000401AB0FA80F04009FFE79DF80B1088428E
:1045100019D1FFE70498002101630498202280F854
:104520003D20049880F83E100498016C41F0200171
:104530000164FFE70498002180F83C10FFE70120A8
:104540008DF8170006E0FFE7FFE793E700208DF8FE
:104550001700FFE79DF8170006B080BD80B586B054
:104560000490039102920193FFE79DF80E00012849
:104570000BD1FFE7049800684069BDF80C100840B3
:10458000401AB0FA80F040090AE004980068806997
:10459000BDF80C100840401AB0FA80F04009FFE75F
:1045A000002877D1FFE704980068406900F4806034
:1045B0000121B1EB902F24D1FFE704980068016836
:1045C00041F400710160049800686FF480614161FA
:1045D0000498002101630498202280F83D2004986B
:1045E00080F83E100498016C41F004010164FFE77B
:1045F0000498002180F83C10FFE701208DF8170097
:104600004CE002980130002843D0FFE7FEF732FA71
:104610000199401A0299884203D8FFE70298B8BB73
:10462000FFE79DF80E0001280BD1FFE70498006812
:104630004069BDF80C100840401AB0FA80F04009FB
:104640000AE0049800688069BDF80C100840401A20
:10465000B0FA80F04009FFE7C8B9FFE704980021ED
:1046600001630498202280F83D20049880F83E10D1
:104670000498016C41F020010164FFE704980021D7
:1046800080F83C10FFE701208DF8170006E0FFE7F7
:10469000FFE76AE700208DF81700FFE79DF8170095
:1046A00006B080BD80B584B0029001910092FFE712
:1046B000029800684069C0B20021B1EBD01F3DD123
:1046C000FFE70298FFF7BCFD20B1FFE701208DF85E
:1046D0000F0037E00198013078B3FFE7FEF7CAF921
:1046E0000099401A0199884203D8FFE7019818BB46
:1046F000FFE7029800684069C0B20021B1EBD01F0B
:1047000019D1FFE70298002101630298202280F866
:104710003D20029880F83E100298016C41F0200183
:104720000164FFE70298002180F83C10FFE70120B8
:104730008DF80F0006E0FFE7FFE7B9E700208DF8EE
:104740000F00FFE79DF80F0004B080BD80B582B078
:10475000FFE741F21400C4F20200016841F00101D8
:104760000160006800F0010001900198FFE70E2051
:104770000021FEF795FC0E20FEF788FC0F2000219B
:10478000FEF78EFC0F20FEF781FC02B080BD00001A
:104790002DE9F04788B0002007900690059004901E
:1047A000FFE741F21800C4F20200016841F0100175
:1047B0000160006800F0100003900398FFE7FFE736
:1047C00041F21800C4F20200016841F020010160CA
:1047D000006800F0200002900298FFE7FFE741F236
:1047E0001800C4F20200016841F004010160006891
:1047F00000F0040001900198FFE7FFE741F2180084
:10480000C4F20200016841F008010160006800F094
:10481000080000900098FFE741F20008C4F2010888
:104820004FF40056002740464FF400510022FEF797
:1048300009F940F60004C4F2010402254FF0010911
:10484000204602210122FEF7FDF84FF0040A20461F
:1048500004210022FEF7F6F80496CDF8149006978E
:10486000079504AE40463146FDF772FFCDF8109033
:104870000597069720463146FDF76AFF04951120FB
:1048800005900697079520463146FDF761FFCDF864
:1048900010A0CDF814900697079520463146FDF7F5
:1048A00057FF08B0BDE8F08780B540F2A030C2F2F3
:1048B000000045F60001C4F20001016041F68021CC
:1048C000C0F20601416000218160C1604FF4804266
:1048D000026141618161C1610162FEF7D1F818B1E5
:1048E000FFE7FDF773FCFFE780BD000080B540F2F5
:1048F000F430C2F2000043F60001C4F2010101608D
:104900004FF4E131416000218160C16001610C22FE
:1049100042618161C161FFF767FB18B1FFE7FDF7F5
:1049200055FCFFE740F2F430C2F200000068C168B5
:1049300041F01001C160FFF743FC80BD80B500F07D
:1049400069FE642001F038FE00F0FEFE00F0D2FEA9
:104950004BF61150C0F6000000F01CFF00F06AFF9B
:10496000FFE740F23C40C2F2000040F21003C2F206
:1049700000030021202200F01BFFFFE700F036FFBC
:104980000028EED1FFE701F07BF8FFE7012001F0FE
:1049900013FE49F27520C0F6000000211B2200F032
:1049A0004FFD49F26120C0F600000121132200F002
:1049B00047FD49F2A520C0F600000321082200F0BF
:1049C0003FFD49F28B20C0F6000004210C2200F0CC
:1049D00037FD49F2CA20C0F6000002210F2200F084
:1049E0002FFD01F081F8D1E7FFE7FEE7FFE7FEE7E3
:1049F00086B0059004910392059800F0070002909C
:104A00000298C0F10700052802D3FFE7042003E065
:104A10000298C0F10700FFE70190029804300628D1
:104A200002D8FFE7002002E002980338FFE7009079
:104A300004980199012202FA01F101390840009914
:104A40008840039B02FA01F101391940084306B07E
:104A5000704700007047000082B00120019001986B
:104A600040F20C01C2F200010968C90844F6D352B1
:104A7000C1F26202A1FB0212910948430090FFE7D4
:104A800000BFFFE70098411E00910028F8D1FFE722
:104A900002B070477047000080B582B00090009867
:104AA0000138B0F1807F03D3FFE70120019019E0C6
:104AB000009801384EF21401CEF2000108604FF068
:104AC000FF300F2101F00EFD4EF21800CEF2000073
:104AD000002101604EF21000CEF2000007220260B9
:104AE0000191FFE7019802B080BD000080B5FEF79C
:104AF0004FFA80BD10B590B006AC20462821FCF7D7
:104B000039FE00200590049003900290019001204E
:104B100006904FF4803107914FF4003208920A90CA
:104B200002200D900E914FF4E0100F902046FEF7FA
:104B300089FC18B1FFE7FDF749FBFFE70F20019063
:104B400002200290002003904FF4806104910590B0
:104B500001A8FEF7C7FA18B1FFE7FDF737FBFFE73B
:104B600010B010BD7047000080B582B00190019870
:104B7000406A009000980021C1850098C184009887
:104B8000FFF714F802B080BD80B584B00390002018
:104B900002900398406A0190019800684069C0B291
:104BA000C0090290019890F8410021280AD1FFE73E
:104BB000029838B1FFE701980021C184019800F004
:104BC00011F9FFE7019800684069C0F38010029076
:104BD000019890F8420022280AD1FFE7029838B1E4
:104BE000FFE701980021C185019800F09FF8FFE7D9
:104BF0000198416C41F0100141640198FEF7D6FF25
:104C000004B080BD80B586B005900598406A0490D8
:104C1000059800680068800600285AD4FFE70498C9
:104C20000021C185FFE7FFE70498006850E8030F03
:104C300020F480700390FFE703980499096841E825
:104C40000302002AF0D1FFE7FFE7FFE7FFE7049840
:104C5000006850E8050F20F001000290FFE702987D
:104C60000499096841E80502002AF0D1FFE7FFE74F
:104C7000FFE7FFE70498006850E8050F20F04000C8
:104C80000190FFE701980499096841E80502002AAC
:104C9000F0D1FFE7FFE70498202180F84210049844
:104CA000006B012814D1FFE7FFE7FFE704980068D5
:104CB00050E8030F20F010000090FFE700980499DF
:104CC000096841E80302002AF0D1FFE7FFE7FFE7A8
:104CD000FFE70498002141630498006B012805D187
:104CE000FFE70498818DFEF7F1FE03E00498FFF7DB
:104CF00099FAFFE706B080BD80B582B001900198B7
:104D0000406A00900098012141630098006B0128DF
:104D100006D1FFE70098818D4908FEF7D7FE03E032
:104D20000098FFF783FAFFE702B080BD84B00390DC
:104D3000FFE7FFE70398006850E8030F20F4907046
:104D40000290FFE702980399096841E80302002AEC
:104D5000F0D1FFE7FFE7FFE7FFE70398006850E8BF
:104D6000050F20F001000190FFE701980399096801
:104D700041E80502002AF0D1FFE7FFE70398006B46
:104D8000012814D1FFE7FFE7FFE70398006850E828
:104D9000030F20F010000090FFE7009803990968C6
:104DA00041E80302002AF0D1FFE7FFE7FFE703989D
:104DB000202180F8421003980021016304B070475D
:104DC00080B582B0019001980068C16821F040016F
:104DD000C1600198202180F841100198FFF72AFA5C
:104DE00002B080BD82B00190FFE7FFE70198006844
:104DF00050E8030F20F0C0000090FFE700980199F1
:104E0000096841E80302002AF0D1FFE7FFE70198B3
:104E1000202180F8411002B07047000080B586B0B4
:104E20000490049890F84200222840F0A480FFE704
:104E300004988068B0F5805F15D1FFE70498006999
:104E400088B9FFE7002003900498806A02900498D4
:104E5000006840686FF35F20029908800498816AB7
:104E60000231816225E00498806A0390002002905C
:104E700004988068B0F5805F08D0FFE704988068E8
:104E800050B9FFE70498006930B9FFE7049800685B
:104E900040680399087007E004980068406800F0D3
:104EA0007F0003990870FFE70498816A01318162ED
:104EB000FFE70498C18D0139C1850804002856D147
:104EC000FFE704980068C16821F02001C1600498E0
:104ED0000068C16821F48071C1600498006841696C
:104EE00021F0010141610498202180F842100498CA
:104EF000002141630498006B012830D1FFE704983A
:104F000000210163FFE7FFE70498006850E8030F02
:104F100020F010000190FFE701980499096841E82A
:104F20000302002AF0D1FFE7FFE704980068006859
:104F3000C00600280ED5FFE7FFE700200090049888
:104F4000006800680090049800684068009000982D
:104F5000FFE7FFE70498818DFEF7B8FD03E00498B2
:104F6000FFF760F9FFE700208DF8170007E0002049
:104F70008DF8170003E002208DF81700FFE706B058
:104F800080BD000080B584B003900398006800697C
:104F900020F4405003990A68C968084310610398D7
:104FA00081680269406911430843029003980068D0
:104FB000C06841F20C61884302990843039909686B
:104FC000C86003980068406920F4407003990A683B
:104FD0008969084350610398006843F60001C4F2F0
:104FE0000101884204D1FFE7FEF7C0F9019003E018
:104FF000FEF7AAF90190FFE70198192148430399A8
:105000000A6849688900B0FBF1F048F21F5CC5F2FC
:10501000EB1CA0FB0C314909642301FB1300322374
:1050200003EB0010A0FB0C03F02000EA531000EB90
:105030000110C3F343110844906004B080BD000028
:1050400080B588B007900691ADF8162006980799AC
:105050008862BDF816000799888507980021416489
:105060000798222280F842200798C06B44F6054238
:10507000C0F6000282620798C06B44F6F942C0F69F
:105080000002C2620798C06B44F68932C0F6000283
:1050900002630798C06B416306A8049007980168F3
:1050A000C06B0431049A1268BDF81630FDF7D0FACF
:1050B000FFE70020039007980068006803900798B6
:1050C0000068406803900398FFE707980069A0B163
:1050D000FFE7FFE7FFE70798006850E8030F40F499
:1050E00080700290FFE702980799096841E803027F
:1050F000002AF0D1FFE7FFE7FFE7FFE7FFE70798A8
:10510000006850E8050F40F001000190FFE70198AA
:105110000799096841E80502002AF0D1FFE7FFE797
:10512000FFE7FFE70798006850E8050F40F04000F0
:105130000090FFE700980799096841E80502002AF6
:10514000F0D1FFE7FFE708B080BD000083B0019019
:10515000019890F8410021283AD1FFE70198806832
:10516000B0F5805F13D1FFE70198006978B9FFE7D8
:105170000198006A0090009800886FF35F20019901
:10518000096848600198016A0231016208E00198EB
:10519000016A4A1C02620878019909684860FFE7C1
:1051A0000198C18C0139C184080468B9FFE70198EE
:1051B0000068C16821F08001C16001980068C16881
:1051C00041F04001C160FFE700208DF80B0003E0D3
:1051D00002208DF80B00FFE703B0704780B5FEF7A3
:1051E000E9FC03F0BBFA80BDFFE7FEE780B501F004
:1051F000B9F9BDE8804001F0BFB9000080B582B0C8
:105200008DF8070000919DF8070000F0BDF849F601
:10521000D060C0F6000000F0BDFA00F017FB40F2CD
:105220003C40C2F200000021C0F89C10009800F041
:10523000B7F900F081F902B080BD000080B582B0FE
:105240000190009101980099FBF73CF802B080BDF5
:1052500010B586B0ADF81600049100200290ADF8AC
:10526000060000900498FBF75BF80390BDF9160068
:10527000B0F1FF3F3EDCFFE7BDF916004142C0EB55
:105280005170C0100290BDF81600029900EBC100E9
:10529000ADF80600029C00F03DFAB4EBD00F01D34C
:1052A000FFE76FE000F036FA0299C1EBD000013061
:1052B00000900499009A40F29414C2F2000420462F
:1052C000FBF798F800980021215449F2F420C0F629
:1052D000000000F05FFA0298BDF80610C1EBC000B4
:1052E00081B240F23C40C2F200003E22234600F070
:1052F0003FFA47E0BDF9160000EB5070C010029075
:1053000002980399884201D3FFE73BE0BDF81600FD
:105310000299A0EBC100ADF8060003980299401A6B
:105320000090009C00F0F6F9012101EBD0008442CE
:1053300007D9FFE700F0EEF9012101EBD000009062
:10534000FFE7049802990144009A40F29414C2F2D3
:1053500000042046FBF74EF800980021215449F242
:10536000F420C0F6000000F015FABDF80600404237
:1053700081B240F23C40C2F200003E22234600F0DF
:10538000F7F9FFE706B010BD80B582B00021ADF897
:1053900006103021ADF804108DF803009DF80300CD
:1053A00004284AD8DFE800F003111F2D3B004BF61C
:1053B000BE20C0F6000000F0EDF9BDF80600BDF813
:1053C0000410452200F01EFA37E04BF6BE20C0F66E
:1053D000000000F0DFF9BDF80600BDF8041041221E
:1053E00000F010FA29E04BF6BE20C0F6000000F0F5
:1053F000D1F9BDF80600BDF80410402200F002FA11
:105400001BE04BF6BE20C0F6000000F0C3F9BDF86B
:105410000600BDF80410432200F0F4F90DE04BF251
:10542000F040C0F6000000F0B5F9BDF80600BDF888
:105430000410432200F0E6F9FFE702B080BD00004F
:1054400080B584B003908DF80B10019200F062F9E2
:105450004042ADF802000398FAF762FFADF8000091
:10546000FFE700F0E7F9FFE79DF80B000199FFF770
:10547000C5FEBDF902000399FFF7EAFEFFE700F061
:10548000B5F90028F0D1FFE7142001F095F8BDF838
:1054900002000230ADF80200BDF90200BDF90010B3
:1054A000C9000131884201DDFFE700E0D9E704B01F
:1054B00080BD000080B582B00190009101980099F4
:1054C000FFF7BCFE02B080BD70B582B0019040F223
:1054D0001000C2F200000021C161816141610161DF
:1054E000C160816041600160019800F053FB00F0F1
:1054F000A1F9FFE700F06EF9044640F23C45C2F224
:10550000000540F21006C2F200062846314600F0BF
:10551000D9F8201A00EBD070C0F34F0128462022A2
:10552000334600F045F9FFE700F060F90028E1D1CB
:10553000FFE702B070BD0000B0B584B040F23C405F
:10554000C2F20000039049F2C120C0F600000290B0
:10555000039CD4F89C0020B9FFE7204600F092F8A5
:1055600006E0D4F89C50204600F08CF82844FFE771
:10557000ADF80600BDF80650204600F08BF8024654
:10558000029B2046294600F013F90299204600F0BC
:1055900099F8D4F89C100844C4F89C0004B0B0BD3D
:1055A00070B588B040F23C41C2F20001079106900C
:1055B000079CD4F89C0020B9FFE7204600F062F871
:1055C00002E0D4F89C00FFE7ADF81600069901ADA3
:1055D000284600F0EAFE284600F09AFC06462846D7
:1055E00000F0BBFC0496BDF81650204600F052F8BF
:1055F0000246049B2046294600F0BAF8049920464A
:1056000000F060F8D4F89C100844C4F89C0008B07E
:1056100070BD000080B582B040F23C40C2F2000094
:10562000019001208DF803009DF80300C00750B1E0
:10563000FFE741F20000C4F201004FF400510122E3
:10564000FDF700FA09E041F20000C4F201004FF456
:1056500000510022FDF7F6F9FFE702B080BD00001F
:1056600010B582B001900091019C204600F006F92F
:105670000020C4F89C000099204601F091FA2046D1
:1056800002B010BD81B000900098B0F8980001B051
:105690007047000081B000900098B0F89A0001B007
:1056A0007047000080B582B00190019802F082FB43
:1056B00002B080BD80B582B00190019800F0F8FF83
:1056C00002B080BD80B582B0019000910198009930
:1056D00001F060F902B080BD80B582B00190002079
:1056E0008DF8030001989DF8031002F07BFB02B0D7
:1056F00080BD000081B040F23C40C2F2000000904A
:10570000009848F21561C0F60001C0F8941001B08D
:105710007047000081B040F23C40C2F200000090AF
:105720000098B0F8440001B07047000080B582B026
:10573000019001980021A0F89810A0F89A1002F0AA
:1057400061FF02B080BD000010B582B040F23C4065
:10575000C2F200000190019C2046FFF7A3FF204603
:10576000FFF7A8FF2046FFF7B7FF02B010BD00000B
:1057700080B584B00390ADF80A10ADF8082001930D
:105780000398BDF80A10BDF80820019B01F08AF8C3
:1057900004B080BD80B582B040F23C41C2F200014D
:1057A000019100900198009901F080F902B080BD4C
:1057B00080B584B00390ADF80A10ADF808200193CD
:1057C0000398BDF80A10BDF80820019B01F082F88B
:1057D00004B080BD81B040F23C40C2F200000090B5
:1057E0000098B0F8440001B07047000080B582B066
:1057F00040F23C40C2F200000190019801F00AF929
:1058000002B080BD80B584B040F23C43C2F20003D8
:105810000393ADF80A00ADF80810ADF80620039820
:10582000BDF80A10BDF80820BDF8063000F054FF9E
:1058300004B080BD80B582B040F23C40C2F20000AE
:105840000190019801F05EF802B080BD82B040F294
:105850003C40C2F2000001903320ADF802002A2043
:10586000ADF800000198BDF80210A0F89810BDF83E
:105870000010A0F89A1002B07047000010B582B076
:105880000190019C47F6A960C0F60000C4F894009E
:105890002046FFF74BFF204602B010BDB0B58AB0DE
:1058A00009900891099C089894F81011FFF702FEDE
:1058B00007900798D8B3FFE707980899401A069011
:1058C00000200590FFE70598D4F80C1188422DDAE6
:1058D000FFE70898059901EB410104EB8101C969D3
:1058E000069AFAF73CFDE0B9FFE7059800EB4000A7
:1058F00004EB8000406A50B1FFE7059800EB4000E0
:1059000004EB8000416A204600F0A0F9FFE705980B
:1059100000EB400004EB8000016A079801308847E3
:10592000ABE0FFE7059801300590CCE7A5E00898CB
:1059300000788DF813009DF813003F2803D0FFE78F
:10594000402844D044E0204600F08EF90020039027
:10595000FFE70398D4F80C11884237DAFFE749F2E1
:10596000C521C0F60001204600F028F904F11C050D
:10597000039800EB400055F82010204600F01EF977
:1059800049F24A21C0F60001204600F017F90398B9
:1059900000EB400005EB8000806850B1FFE7039802
:1059A00000EB400004EB8000416A204600F04EF915
:1059B00007E049F2E521C0F60001204600F046F973
:1059C000FFE7FFE7039801300390C2E755E054E09A
:1059D00000200290FFE70298D4F80C1188424ADABE
:1059E000FFE704F11C05029800EB400055F8200089
:1059F000FAF796FC01900898029901EB410155F8DD
:105A00002110019AFAF7ABFC80BBFFE7029800EB8C
:105A1000400004EB8000406A50B1FFE7029800EBC1
:105A2000400004EB8000416A204600F00FF9FFE7D8
:105A30000898FAF775FC0199013188420CD9FFE703
:105A4000029800EB400004EB8000016A0898019A7C
:105A500010440130884708E0029800EB400004EB56
:105A60008000016A00208847FFE705E0FFE7029811
:105A700001300290AFE7FFE7FFE70AB0B0BD0000DA
:105A800084B040F2E010C2F20000039049F2DF203F
:105A9000C0F60000029045F2C940C0F60000019037
:105AA000002000900398029900F11C02D0F80C31FC
:105AB00003EB430342F823100199D0F80C3103EBB8
:105AC000430302EB830359600099D0F80C3103EBD8
:105AD000430302EB83029160D0F80C110131C0F84E
