:020000040800F2
:1000000038120020B50100081538000865300008D6
:1000100011380008450F00081140000800000000DA
:10002000000000000000000000000000BD380008D3
:10003000BD0F0008000000007D38000815390008D9
:10004000CF010008CF010008CF010008CF01000850
:10005000CF010008CF010008CF010008CF01000840
:10006000CF010008CF010008CF010008CF01000830
:10007000CF010008CF010008490F0008590F000800
:10008000CF010008CF010008CF010008CF01000810
:10009000CF010008CF010008CF010008CF01000800
:1000A000CF010008CF010008CF010008CF010008F0
:1000B000CF010008CF010008CF010008CF010008E0
:1000C000CF010008CF010008CF010008CF010008D0
:1000D000CF01000805400008CF010008CF0100084B
:1000E000CF010008CF010008CF01000800F002F89E
:1000F00000F050F80AA090E8000C82448344AAF172
:100100000107DA4501D100F045F8AFF2090EBAE86F
:100110000F0013F0010F18BFFB1A43F0010318473B
:10012000B0110100D0110100103A24BF78C878C185
:10013000FAD8520724BF30C830C144BF04680C60ED
:10014000704700000023002400250026103A28BF35
:1001500078C1FBD8520728BF30C148BF0B60704739
:10016000662909F02D86002070471FB59DE8030021
:1001700000F05AFA00F07AFD04000020002109F096
:1001800009FEE06000F0CCFE1FBD10B5002000F0BD
:10019000D4FC10BD00F044FD1146FFF7E6FF07F068
:1001A0004FF900F033FE03B4FFF7EFFF03BC00F09C
:1001B00011FA00000948804709480047FEE7FEE7BA
:1001C000FEE7FEE7FEE7FEE7FEE7FEE7FEE7FEE707
:1001D00004480549054A064B704700008D39000860
:1001E000ED000008380A002038120020380E0020E8
:1001F000380E00200B460146184600F005B910B530
:10020000431C02E010F8011B71B18107FAD14FF0D5
:10021000013202C88C1A8C4314EAC211F9D0C01AF8
:100220000A0603D0C01E10BDC01A10BD0A0401D0BA
:10023000801E10BD0902FCD0401E10BD10B5044642
:1002400010F0030F08BF11F0030F40F015804FF0BE
:10025000013E121FC0F20E8051F8043BA3EB0E0CBE
:100260002CEA030C1CEACE1C08BF40F8043BF0D07B
:10027000A1F1040102F10402521E08DB11F8013B56
:1002800000F8013B002BF7D1114600F019F9204688
:1002900010BD70477047704770B5064600F0A4F96E
:1002A000056806F10B0020F00704B4429CBF002053
:1002B00070BD2B466A68BAB11068A04210D304F131
:1002C000080188423CBF5068586007D35168101934
:1002D00041601168091B016058601460101D70BDF9
:1002E00013465268002AE7D12146284600F088F9D3
:1002F0000028DED170BD70B50446051F00F074F90A
:100300000068002C14BF446870BD002C18BFAC42BC
:100310003CBF20466468F8D301680A18AA4218BF97
:10032000456003D12A6805461144016028684119D7
:10033000A1421CBF6C6070BD61686960216808449F
:10034000286070BD2DE9F04791460C46804600F0CC
:100350004BF90768604234EA000001D1042C02D254
:100360000520BDE8F087601E40F0070609F10B008C
:1003700020F007054D4539D93B467A6882B31468A9
:10038000101D404206EA000C644525D9A4EB0C0080
:10039000854221D8BCF1000F0BD0104601686244A1
:1003A000A1EB0C01116041685160C0F800C05860B9
:1003B0000346116805F10800814205D35019491B15
:1003C000016015605860034652F8040F5860002021
:1003D000C8F80020BDE8F08713465268002ACED145
:1003E0002946384600F00CF90028C5D10620BDE8A2
:1003F000F08710B5002000F0C1FBFFF7C6FEBDE896
:100400001040012000F0E6B82DE9F04107461546FE
:100410000E461020FFF740FF04000AD06760C4E9D1
:10042000026500F0E5F80168216004600020BDE885
:10043000F0810120FBE7032A40F2308010F0030C2A
:1004400000F0158011F8013BBCF1020F624498BF27
:1004500011F801CB00F8013B38BF11F8013BA2F1C4
:10046000040298BF00F801CB38BF00F8013B11F03F
:10047000030300F08A83083AC0F0088051F8043B77
:10048000083A51F804CBA0E80810F5E7121D5CBF4C
:1004900051F8043B40F8043BAFF30080D20724BF7F
:1004A00011F8013B11F801CB48BF11F8012B24BF13
:1004B00000F8013B00F801CB48BF00F8012B704762
:1004C0004FF000020429C0F0128010F0030C00F07D
:1004D0001B80CCF1040CBCF1020F18BF00F8012BFB
:1004E000A8BF20F8022BA1EB0C0100F00DB85FEAC9
:1004F000C17C24BF00F8012B00F8012B48BF00F895
:10050000012B70474FF0000200B513469446964603
:10051000203922BFA0E80C50A0E80C50B1F1200116
:10052000BFF4F7AF090728BFA0E80C5048BF0CC0C4
:100530005DF804EB890028BF40F8042B08BF704722
:1005400048BF20F8022B11F0804F18BF00F8012B94
:10055000704700004FF0013C50F8042B51F8043B69
:100560009A4221D1A2EB0C03934313EACC1317D187
:1005700050F8042B51F8043B9A4215D1A2EB0C031E
:10058000934313EACC130BD150F8042B51F8043BDE
:100590009A4209D1A2EB0C03934313EACC13DBD0AC
:1005A0004FF00000704700BFD01A01BAB1FA81F1D4
:1005B00001F0180122FA01F0CB40DBB2C0B2C01A40
:1005C000C1F120012CFA01F3D11A914311EAC311B0
:1005D000E6D1704701491820ABBEFEE726000200B5
:1005E0000048704730000020004870473800002065
:1005F0000048704768000020704770477047704798
:1006000038B504460A4600206946AFF3008000284A
:1006100008BF38BD02460099204600F02BFB0120A0
:1006200038BD012000F018BCF8B5AFF300800546D6
:1006300000200C46102000BF0646A819A0420DD984
:10064000324669460020AFF30080070008BF00F083
:1006500003FC0098A04218BF0546C419FFF7C4FF69
:1006600005600746F01D20F007004619284600F0F7
:100670000AF8B44208BFF8BDA21B31463868BDE88D
:10068000F84000F0F7BA00210160C0E9011070479E
:100690001020704730B5B0F10A0271F100034FEA43
:1006A000900E4EEA817EB0EB0E0061EB91014FEAB5
:1006B000101E4EEA017E10EB0E0041EB11114FEAC5
:1006C000102E4EEA016E10EB0E0041EB11214FEAA5
:1006D000104E4EEA014E10EB0E0041EB1141401856
:1006E00041F100014FEAD00040EA41704FEAD101E8
:1006F0004FEA810444EA907410EB800544EB010456
:100700006D1944EB0404521BA3414FF0000348BF92
:100710000A3200D530BD401C41F1000130BD2DE949
:10072000FF4F0C461E464FF0FF378BB0D2E9000159
:10073000DDF860800A908A46C1F30A5505B93D4646
:10074000002108464FF00000BAF1000F00F440000D
:1007500005DA00EB80004FF4400101EA50004FEA57
:100760009059B9F1010F00DDB9460A9850EA4A00E4
:100770000ED044F61050A5F2FF3545432F14B8F1C2
:10078000000F1ED07542291E1EDDC9F100021CE0BB
:10079000B8F1010F4FF0000001D0302103E0F24327
:1007A00005E02154401CB042FBDB30460022002112
:1007B00021540B99C1F80880C1E900200FB0BDE8B1
:1007C000F08FBD1B6D1CDEE74A4600DA694206A8C1
:1007D00000F0AAFA06AB93E8070003AB83E8070032
:1007E00050460A9908F0F9FE8DE80700A0F5005080
:1007F0001F3800900398002D0ADD42F21F014A467F
:100800000844002303A90390684609F063F909E04E
:10081000A0F500504A461F38002303A903906846FC
:1008200009F06DF98DE807000004000C03D04FF0CB
:10083000FF30410800E01046B8F1000F03D000225D
:10084000009215461EE0751E05D4FFF723FF3032D7
:1008500062556D1EF9D5B3460122084302D000222D
:100860007F1C04E02078302801D100227F1E002A5E
:10087000099784D01DE0112D07DAFFF70BFF303206
:1008800062556D1C50EA0102F5D1084302D0009870
:10089000C8B10EE00021681E05E0235C625C635471
:1008A0002254401E491C8142F7DBAB46A81B401E68
:1008B0000990002004F80B000B98099AC0F80880F2
:1008C000C0E9002B7AE711264FF0000857E72DE921
:1008D000F04F88460446D21D22F0070191B0D1E9BD
:1008E0000001CDE90A0109F041FA02460B98C00F58
:1008F00001D02D2007E02068810701D52B2002E0E0
:10090000202101EAC000032A099001D0072A05DB53
:1009100003464146204600F0C7F90BE120788006E7
:1009200001D5E06900E00620B8F1650F814606D0E8
:10093000B8F1660F18D0B8F1670F70D131E0002020
:10094000B9F1110F009001DB112301E009F101035E
:100950000AAA01A90CA8FFF7E2FEDDE90C70002647
:1009600009F10105834647E001204B4600904FF016
:1009700000470AAA01A90CA8FFF7D1FEDDE90DB0D6
:100980000C995D46002610B909F101000D18B9EB6C
:10099000050003D4C0F1FF3609F10105A5EB0900FC
:1009A0002BE0B9F1010F01DA4FF001090020B9F194
:1009B000110F0090484601DD112300E003460AAA0A
:1009C00001A90CA8FFF7ABFEDDE90C704D4600262F
:1009D0008346207800070AD4AB4500DA5D4601A8BB
:1009E000012D04DD411911F8011C302907D04F45B4
:1009F00002DA17F1040F04DA012082460FE06D1EBF
:100A0000EEE7002F02DCED1B3E4403E0781CA84219
:100A100000DD7D1CB81B00F1010A4FF00047207873
:100A2000000703D4AA4501DB4FF0FF3A0021B7F1DC
:100A3000004F0DF143088DF8431024D002202B23E2
:100A4000002F01DA7F422D230A21021EA0F10100AE
:100A500000DC5FB197FBF1FC97FBF1F201FB1C7C22
:100A600017460CF1300C08F801CDEEE7A8F10100B3
:100A700003702188090501D5452100E06521A0F119
:100A8000010800F8011C09980FA9A1EB0807FF1D38
:100A900000B10120411901EBEA70A1693844081A3C
:100AA000401EA0612078C00602D42046AFF300802B
:100AB000099828B1D4E901219047206A401C20629E
:100AC0002078C00622D52046AFF300801EE0002E1D
:100AD00004DBB34502DD01A8805D00E03020D4E9ED
:100AE00001219047206A401C2062761CAAF1010077
:100AF0005FEA000A0AD100F0B9F8C0680168405CFA
:100B0000D4E901219047206A401C2062281EA5F1EB
:100B10000105DCDC07E0D4E9012118F8010B90475E
:100B2000206A401C2062381EA7F10107F3DC204632
:100B3000AFF30080032011B041E62DE9F0410646F5
:100B4000FFF756FD8046454613E016B1E068B04217
:100B50000ED120682860D4E90101D8F800708847D8
:100B60002046FFF7C8FBD8F80000B842EBD100E000
:100B700025462C68002CE8D1BDE8F08110B500F0C6
:100B800053F9BDE8104000F04AB910B5203AC0F062
:100B90000B80B1E81850A0E81850B1E81850A0E850
:100BA0001850203ABFF4F5AF5FEA027C24BFB1E8E9
:100BB0001850A0E8185044BF18C918C0BDE810402C
:100BC0005FEA827C24BF51F8043B40F8043B08BF35
:100BD0007047D20728BF31F8023B48BF11F8012BFC
:100BE00028BF20F8023B48BF00F8012B70470000E7
:100BF00080E8FF1FC0F834D0C0F838E0C0F83CE00F
:100C00004FF00000704700BF80EC200B704700BF22
:100C100080EC200B704700BFC0EC200B7047704782
:100C20007546FFF7DDFCAE4605006946534620F0E9
:100C30000700854618B020B5FFF7CAFABDE8204086
:100C40004FF000064FF000074FF000084FF0000B88
:100C5000AC46ACE8C009ACE8C009ACE8C009ACE8F7
:100C6000C00921F007018D46704700000048704719
:100C700050000020034640688C46002818BF884278
:100C80003CBF03464068F8D318681844884207D030
:100C90000CF1030020F00700001D411A521A014612
:100CA000081D0A60FFF727BB2DE9F0411F460446E7
:100CB00003260168072A01F4006004DB08B116A5C9
:100CC00005E016A503E008B115A500E015A521F083
:100CD00010002060A069C01EA0610FB1401EA0617D
:100CE0002046AFF300804FB1D4E901213846904748
:100CF000206A401C2062C01C206206E0206AFAE7DD
:100D0000D4E9012115F8010B9047761EF8D2204650
:100D1000AFF30080BDE8F0814E414E006E616E0081
:100D2000494E4600696E66002DE9F0478146164639
:100D30008AB0354878440DC88DE80D0032487844B3
:100D4000801C03AC0DC884E80D0041F69B300844BC
:100D5000372190FBF1F290FBF1F5A5F1800501FB45
:100D600012041B3C02D56442012000E00020DFF8A1
:100D700098A080460027FA44AAF1BE0A0EE0E007D8
:100D80000AD03246684607EB470101230AEB81018E
:100D900008F0B5FE8DE8070064107F1C002CEED132
:100DA000194F7F44AE3F19E0E80715D007EB041058
:100DB0000DF1180A90E80E008AE80E00C068F042B3
:100DC00001D1981908903246012306A903A808F01A
:100DD00096FE03AB83E807006D10641C002DE3D181
:100DE0004FF0010332466946B8F1000F03A802D064
:100DF00008F070FE01E008F082FEC9E90001C9F8C0
:100E000008200AB0BDE8F0875092000010B50446F3
:100E1000AFF300802046BDE81040FFF7C4B90028BA
:100E200001D0FFF7D7BB704710B5002102A000F03A
:100E30002EF8012010BD0000534947414252543A58
:100E40002041626E6F726D616C207465726D696EA7
:100E50006174696F6E00000010B500F031F8BDE8F4
:100E60001040FFF7DCBF000086469EE8FF1FDEF85B
:100E700034D0DEF83CE0704790EC200B704700BFA8
:100E800090EC200B704700BFD0EC200B704770B582
:100E900005460C460A2000E06D1C00F039F835B11B
:100EA00028780028F8D102E0641C00F031F814B171
:100EB00020780028F8D1BDE870400A2000F028B85A
:100EC00010B5012805D0002103A0FFF7E0FF0120A5
:100ED00010BD09A1F8E7000053494752544D454D54
:100EE0003A204F7574206F662068656170206D65CB
:100EF0006D6F7279000000003A2048656170206DC6
:100F0000656D6F727920636F7272757074656400BD
:100F100008B569468DF800000320ABBE08BD00008F
:100F200070B5064C7C44064D7D4404E020460168C3
:100F300008448047241DAC42F8D170BDE403010091
:100F4000E4030100FFE7FEE780B540F26C40C2F227
:100F5000000000F0FBF880BD80B540F22840C2F2EE
:100F6000000000F0F3F880BD84B00390029101927C
:100F700000930398C16B006C012202FA00F04860F4
:100F8000009803990968486003984068102809D1BF
:100F9000FFE7019803990968886002980399096836
:100FA000C86008E00298039909688860019803996D
:100FB0000968C860FFE704B0704700007047000090
:100FC00081B0EFF3108072B60090FFE7FEE70000FB
:100FD00083B0019000208DF80300019890F8210063
:100FE00002280DD0FFE7019804218163FFE70198F3
:100FF000002180F82010FFE701208DF80B0022E08F
:1010000001980068016821F00E01016001980068F4
:10101000016821F0010101600198C16B006C01229F
:1010200002FA00F04860FFE70198012180F82110E2
:10103000FFE70198002180F82010FFE79DF80300EA
:101040008DF80B00FFE703B07047000080B582B059
:10105000019000208DF80300019890F821000228EB
:1010600007D0FFE701980421816301208DF8030078
:1010700067E001980068016821F00E0101600198A5
:101080000068016821F001010160019800680821F1
:10109000C4F20201884202D1FFE701203AE0019840
:1010A00000681C21C4F20201884202D1FFE710202F
:1010B0002FE0019800683021C4F20201884203D178
:1010C000FFE74FF4807023E0019800684421C4F2E8
:1010D0000201884203D1FFE74FF4805017E00198E6
:1010E00000685821C4F20201884203D1FFE74FF49F
:1010F00080300BE0019801686C22C4F202024FF0CC
:101100008070914208BF4FF48010FFE7FFE7FFE7D0
:10111000FFE7FFE70421C4F2020108600198012102
:1011200080F82110FFE70198002180F82010FFE7E8
:101130000198406B20B1FFE70198416B8847FFE7BA
:10114000FFE79DF8030002B080BD000080B584B0C9
:1011500003900398C06B00680290039800680068D1
:10116000019002980399096CC8404007002866D591
:10117000FFE79DF804004007002860D5FFE70398CB
:10118000006800688006002807D4FFE7039800681D
:10119000016821F004010160FFE70398006808215D
:1011A000C4F20201884202D1FFE704203AE003982A
:1011B00000681C21C4F20201884202D1FFE74020EE
:1011C0002FE0039800683021C4F20201884203D165
:1011D000FFE74FF4806023E0039800684421C4F2E5
:1011E0000201884203D1FFE74FF4804017E00398E3
:1011F00000685821C4F20201884203D1FFE74FF48E
:1012000080200BE0039801686C22C4F202024FF0C8
:101210008060914208BF4FF48000FFE7FFE7FFE7DF
:10122000FFE7FFE70421C4F2020108600398C06AE7
:1012300020B1FFE70398C16A8847FFE7A8E002985A
:101240000399096CC8408007002870D5FFE79DF816
:101250000400800700286AD5FFE70398006800684B
:10126000800600280BD4FFE703980068016821F08E
:101270000A0101600398012180F82110FFE703981B
:1012800000680821C4F20201884202D1FFE702206F
:101290003AE0039800681C21C4F20201884202D19E
:1012A000FFE720202FE0039800683021C4F20201FC
:1012B000884203D1FFE74FF4007023E003980068F1
:1012C0004421C4F20201884203D1FFE74FF40050E9
:1012D00017E0039800685821C4F20201884203D144
:1012E000FFE74FF400300BE0039801686C22C4F272
:1012F00002024FF00070914208BF4FF40010FFE768
:10130000FFE7FFE7FFE7FFE70421C4F202010860FF
:10131000FFE70398002180F82010FFE70398806A18
:1013200020B1FFE70398816A8847FFE72FE0029822
:101330000399096CC8400007002827D5FFE79DF8EE
:1013400004000007002821D5FFE703980068016822
:1013500021F00E0101600398C16B006C012202FABA
:1013600000F0486003988263039880F82120FFE72B
:101370000398002180F82010FFE70398006B20B14C
:10138000FFE70398016B8847FFE7FFE7FFE7FFE709
:1013900004B080BD83B0019000200090019820B976
:1013A000FFE701208DF80B0047E0019801684FF638
:1013B000F872CBF6FD7211444CF6CD42CCF6CC421D
:1013C000A1FB02126FF0030101EA9201016401988E
:1013D0000021C4F20201C1630198022180F82110AA
:1013E0000198006800680090009843F6F071884307
:1013F00000900198D0F804C08268C368016942EA8D
:101400000C021A4311434269114382691143C069B6
:101410000843009908430090009801990968086002
:101420000198002181630198012280F82120019810
:1014300080F820108DF80B10FFE79DF80B0003B02B
:101440007047000080B586B004900391029201932A
:1014500000208DF80300FFE7049890F82000012891
:1014600004D1FFE702208DF817004CE00498012119
:1014700080F82010FFE7FFE7049890F8210001288A
:1014800032D1FFE70498022180F82110049800214E
:10149000816304980068016821F0010101600498EB
:1014A0000399029A019BFFF75FFD0498C06A38B167
:1014B000FFE704980068016841F00E0101600CE04C
:1014C00004980068016821F0040101600498006834
:1014D000016841F00A010160FFE7049800680168B3
:1014E00041F00101016009E0FFE70498002180F864
:1014F0002010FFE702208DF80300FFE79DF80300AE
:101500008DF81700FFE706B080BD000080B584B0FD
:10151000039000F0C3F90290039801900198013004
:1015200020B1FFE7019801300190FFE7FFE700F0ED
:10153000B5F90299401A0199884201D2FFE7F6E70E
:1015400004B080BD8AB009900891002007900390F4
:10155000FFE7089800680799C840002800F06A81F2
:10156000FFE70798012101FA00F00690089800684B
:1015700006990840059005980699884240F05681E2
:10158000FFE708984068002846D0FFE7012830D0E0
:10159000FFE7022836D0FFE7032857D0FFE71128DE
:1015A0002BD0FFE7122832D0FFE70021C1F2110152
:1015B000884231D0FFE70021C1F2120188422BD0CE
:1015C000FFE70021C1F22101884225D0FFE7002179
:1015D000C1F2220188421FD0FFE70021C1F2310190
:1015E000884219D0FFE70021C1F23201884213D0AE
:1015F0002FE00898C06803902CE00898C068043079
:10160000039027E00898C0680830039022E008980B
:10161000C0680C3003901DE00898806818B9FFE797
:101620000420039011E008988068012806D1FFE7A4
:101630000820039006980999086105E008200390A6
:10164000069809994861FFE7FFE703E0002003904F
:1016500000E0FFE70598FF2802D8FFE7099802E0BD
:1016600009980430FFE702900598FF2803D8FFE7A8
:101670000798800005E007986FF01F0101EB8000DC
:10168000FFE701900298006801990F228A40904379
:10169000039A02FA01F10843029908600898C07998
:1016A000C006002840F1C180FFE7FFE741F21800C3
:1016B000C4F20200016841F001010160006800F01D
:1016C000010000900098FFE7079820F00300082130
:1016D000C4F2010140580490079800F00300800014
:1016E0000F2101FA00F0049921EA00000490099802
:1016F00040F60001C4F20101884202D1FFE7002058
:101700001FE0099840F60041C4F20101884202D16D
:10171000FFE7012014E0099841F20001C4F2010141
:10172000884202D1FFE7022009E0099941F2004214
:10173000C4F201020420914208BF0320FFE7FFE743
:10174000FFE7079901F003018900884004990843E5
:1017500004900498079921F003010822C4F20102C1
:10176000885008988079C006002809D5FFE70598B9
:1017700040F20841C4F201010A681043086009E020
:10178000059840F20841C4F201010A6822EA00000B
:101790000860FFE7089880798006002809D5FFE7F0
:1017A000059840F20C41C4F201010A681043086038
:1017B00009E0059840F20C41C4F201010A6822EAEE
:1017C00000000860FFE7089880798007002809D5A5
:1017D000FFE7059840F20441C4F201010A68104392
:1017E000086009E0059840F20441C4F201010A686A
:1017F00022EA00000860FFE708988079C00748B136
:10180000FFE7059840F20041C4F201010A68104365
:10181000086009E0059840F20041C4F201010A683D
:1018200022EA00000860FFE7FFE7FFE707980130C2
:1018300007908EE60AB0704783B040F60000C4F20D
:10184000010002900220ADF806000298C0680090E6
:101850000098BDF8061000EA010221EA000040EA03
:1018600002400299086103B07047000082B0019005
:10187000ADF802108DF801209DF8010028B1FFE7B6
:10188000BDF802000199086105E0BDF802000004FE
:1018900001990861FFE702B07047000040F6302070
:1018A000C2F200000068704780B584B040F2B040DA
:1018B000C2F200000290029820B9FFE701208DF8E3
:1018C0000F002AE1029890F83D0040B9FFE7029826
:1018D000002180F83C10029800F02EFAFFE70298F1
:1018E000242180F83D1002980068016821F0010170
:1018F000016002980068016841F4004101600298AB
:101900000068016821F40041016000F031FC0090A2
:101910000298406848F2A061C0F2010188420AD8EA
:10192000FFE7009948F28042C0F21E020020914277
:1019300038BF012009E0009940F60012C0F23D02D4
:101940000020914238BF0120FFE7012804D1FFE7C2
:1019500001208DF80F00E0E000984DF68361C4F29D
:101960001B31A0FB0101880C0190029800684068BF
:1019700020F03F00019908430299096848600298E5
:101980000068006A20F03F000299496848F2A062AE
:10199000C0F20102914203D8FFE7019901310DE045
:1019A00001994FF49672514344F6D352C1F2620248
:1019B000A1FB0212012101EB9211FFE708430299FA
:1019C0000968086202980068C0694CF6FF71884394
:1019D0000299496848F2A062C0F2010291421BD804
:1019E000FFE700990139029A52685200B1FBF2F107
:1019F00001316FF31F31032902D8FFE704210AE008
:101A000000990139029A52685200B1FBF2F101319A
:101A10006FF31F31FFE742E00299896861B9FFE780
:101A200000990139029A526802EB4202B1FBF2F1CD
:101A300001316FF31F310CE000990139029A5268AD
:101A400019235A43B1FBF2F10131042262F31F3131
:101A5000FFE7090511B9FFE701211FE00299896835
:101A600061B9FFE700990139029A526802EB42021C
:101A7000B1FBF2F101316FF31F310CE00099013934
:101A8000029A526819235A43B1FBF2F10131042240
:101A900062F31F31FFE741F40041FFE7FFE708432E
:101AA00002990968C86102980068006820F0C000C7
:101AB00002990A68CB69096A1943084310600298C1
:101AC0000068806848F2FF31884302990A68CB6851
:101AD000096919430843906002980068C06820F0C3
:101AE000FF0002990A684B69896919430843D0606D
:101AF00002980068016841F001010160029800212C
:101B000001640298202280F83D2002980163029827
:101B100080F83E108DF80F10FFE79DF80F0004B01D
:101B200080BD000080B58AB040F2B042C2F200022F
:101B30000892ADF81E0040F2C920C2F200000690E3
:101B4000ADF816104FF47A700490FFF7A7FE0390DB
:101B5000089890F83D00202840F0E880FFE70898BA
:101B6000039900910221C0F210010122192301F012
:101B70008BFB20B1FFE702208DF82700DAE0FFE7BA
:101B8000089890F83C00012804D1FFE702208DF866
:101B90002700CFE00898012180F83C10FFE7FFE71D
:101BA000089800680068C00738B9FFE7089800681F
:101BB000016841F001010160FFE7089800680168D1
:101BC00021F4006101600898212180F83D100898F7
:101BD000102180F83E1008980021016406980899A9
:101BE0004862BDF81600089948850898408D089904
:101BF000088508980021CFF6FF71C1620898BDF8EA
:101C00001E10049A039B01F061FA20B1FFE7012046
:101C10008DF827008EE0FFE700200290089800680A
:101C20004069029008980068806902900298FFE776
:101C3000FFE70898008D002860D0FFE70898049916
:101C4000039A01F043FC80B1FFE70898006C042878
:101C500007D1FFE708980068016841F4007101604E
:101C6000FFE701208DF8270064E008980168406ACA
:101C7000007808610898416A013141620898418DF5
:101C8000013941850898018D01390185089800685E
:101C9000406900F004000121B1EB900F16D1FFE77D
:101CA0000898008D90B1FFE708980168406A0078B5
:101CB00008610898416A013141620898418D0139F3
:101CC00041850898018D01390185FFE7089804993D
:101CD000039A01F083FA80B1FFE70898006C0428AA
:101CE00007D1FFE708980068016841F400710160BE
:101CF000FFE701208DF827001CE09AE708980068AC
:101D0000016841F4007101600898202180F83D10BD
:101D10000898002180F83E10FFE70898002180F81D
:101D20003C10FFE700208DF8270003E002208DF82B
:101D30002700FFE70AB080BD80B588B0079000207B
:101D400006900590049003900798006845F60001FE
:101D5000C4F2000188422DD1FFE7FFE741F21800ED
:101D6000C4F20200016841F008010160006800F05F
:101D7000080002900298FFE74FF4406003901220A1
:101D800004900320069040F60040C4F2010003A92D
:101D9000FFF7D8FBFFE741F21C00C4F20200016824
:101DA00041F480010160006800F480000190019816
:101DB000FFE7FFE708B080BD40F63020C2F2000028
:101DC000016801310160704780B542F20000C4F241
:101DD0000200016841F01001016000F08DF80F2051
:101DE00000F004F800F034F880BD000080B582B047
:101DF000009040F20000C2F20000006844F6D351A7
:101E0000C1F26201A0FB0101880900F06BFD20B165
:101E1000FFE701208DF8070017E000980F280CD885
:101E2000FFE700994FF0FF3000F04EF8009840F2C5
:101E30002C01C2F20001086003E001208DF80700C8
:101E400003E000208DF80700FFE702B080BD00002E
:101E500083B0FFE741F21800C4F20200016841F0CC
:101E600001010160006800F0010002900298FFE7A4
:101E7000FFE741F21C00C4F20200016841F080510A
:101E80000160006800F0805001900198FFE7FFE7D3
:101E90000420C4F2010001680091009921F0E06182
:101EA0000091009941F00071009100990160FFE7F5
:101EB00003B0704780B582B08DF807009DF9070028
:101EC00004F0C8FD02B080BD10B584B08DF80F00DD
:101ED000029100200190009004F0D6FD00909DF941
:101EE0000F4000980299019A01F096FC01462046A5
:101EF00004F0D2FD04B010BD80B582B00320019083
:101F0000019804F0EBFD02B080BD000080B584B004
:101F1000029002200190029820B9FFE701208DF87D
:101F20000F001BE1019842F20001C4F202010968AE
:101F300001F00701884216D9FFE742F20000C4F21F
:101F40000200016821F00701019A11430160006855
:101F500000F007000199884204D0FFE701208DF8C6
:101F60000F00FBE0FFE702980078800700282AD5E1
:101F7000FFE7029800784007002809D5FFE741F203
:101F80000400C4F20200016841F4E0610160FFE76F
:101F9000029800780007002809D5FFE741F2040005
:101FA000C4F20200016841F460510160FFE741F2B0
:101FB0000400C4F20200016821F0F001029A926864
:101FC00011430160FFE702980078C007002860D045
:101FD000FFE70298406801280ED1FFE741F20000B8
:101FE000C4F2020000688003002804D4FFE7012047
:101FF0008DF80F00B2E021E00298406802280ED16F
:10200000FFE741F20000C4F20200006880010028EE
:1020100004D4FFE701208DF80F009FE00DE041F2AE
:102020000000C4F2020000688007002804D4FFE723
:1020300001208DF80F0091E0FFE7FFE741F2040077
:10204000C4F20200016821F00301029A52681143B0
:102050000160FFF723FC0090FFE741F20400C4F2A7
:102060000200006800F00C0002994968B0EB810F93
:102070000ED0FFE7FFF712FC0099401A41F28931B8
:10208000884204D3FFE703208DF80F0066E0E4E701
:10209000FFE7019842F20001C4F20201096801F071
:1020A0000701884216D2FFE742F20000C4F20200A4
:1020B000016821F00701019A11430160006800F0F6
:1020C00007000199884204D0FFE701208DF80F0036
:1020D00044E0FFE702980078400700280CD5FFE7AE
:1020E00041F20400C4F20200016821F4E061029AA6
:1020F000D26811430160FFE70298007800070028CA
:102100000DD5FFE741F20400C4F20200016821F49A
:102110006051029A126941EAC2010160FFE700F0D2
:102120004BF841F20401C4F202010968C9B209097D
:102130004AF2A422C0F60002515CC84040F20001FD
:10214000C2F20001086040F22C00C2F200000068F8
:10215000FFF74CFE00208DF80F00FFE79DF80F0001
:1021600004B080BD40F20000C2F200000068704779
:1021700080B5FFF7F7FF41F20401C4F202010968DC
:10218000C1F302214AF2C422C0F60002515CC840E9
:1021900080BD000080B5FFF7E5FF41F20401C4F205
:1021A00002010968C1F3C2214AF2C422C0F600024A
:1021B000515CC84080BD000085B0002004900390B1
:1021C00002900190009041F20400C4F20200006805
:1021D0000490049800F00C00E8B3FFE7042803D053
:1021E000FFE7082806D037E042F20040C0F2F400D2
:1021F000009037E00498C0F383404AF2B421C0F65F
:102200000001085C01909DF81200C007C0B1FFE713
:1022100041F20400C4F202000068C0F3404049F6F5
:10222000A071C0F60001085C0390019842F20041E1
:10223000C0F2F40148430399B0FBF1F0029007E0CB
:10224000019840F60011C0F23D0148430290FFE7BB
:102250000298009006E0FFE741F20020C0F27A0009
:102260000090FFE7009805B07047000080B586B089
:102270000490049820B9FFE701208DF817002DE3A2
:1022800004980078C007002800F0AE80FFE741F214
:102290000400C4F20200006800F00C00042813D00F
:1022A000FFE741F20400C4F20200006800F00C00F5
:1022B00008281BD1FFE741F20400C4F202000068C5
:1022C000C003002812D5FFE741F20000C4F202006B
:1022D00000688003002808D5FFE70498406820B90B
:1022E000FFE701208DF81700F8E27CE0FFE7049893
:1022F0004068B0F5803F09D1FFE741F20000C4F229
:102300000200016841F48031016032E004984068C5
:1023100068B9FFE741F20000C4F20200016821F44D
:1023200080310160016821F48021016020E004987F
:102330004068B0F5A02F0DD1FFE741F20000C4F2D4
:102340000200016841F480210160016841F480319C
:1023500001600CE041F20000C4F20200016821F4C7
:1023600080310160016821F480210160FFE7FFE70F
:10237000FFE7FFE704984068D0B1FFE7FFF78EFA68
:102380000390FFE741F20000C4F2020000688003FE
:1023900000280CD4FFE7FFF781FA0399401A65285B
:1023A00004D3FFE703208DF8170097E2EAE719E06E
:1023B000FFF774FA0390FFE741F20000C4F2020055
:1023C0000068800300280CD5FFE7FFF767FA039940
:1023D000401A652804D3FFE703208DF817007DE23B
:1023E000EAE7FFE7FFE7FFE70498007880070028A7
:1023F00040F18D80FFE741F20400C4F20200006862
:1024000010F00C0F13D0FFE741F20400C4F20200F9
:10241000006800F00C00082829D1FFE741F2040011
:10242000C4F202000068C003002820D4FFE741F294
:102430000000C4F2020000688007002809D5FFE709
:1024400004980069012804D0FFE701208DF81700E7
:1024500044E241F20000C4F20200016821F0F801F8
:10246000049A526941EAC2010160FFE74EE0049814
:10247000006958B3FFE70020C4F242200121016047
:10248000FFF70CFA0390FFE741F20000C4F20200EC
:102490000068800700280CD4FFE7FFF7FFF90399D5
:1024A000401A032804D3FFE703208DF8170015E234
:1024B000EAE741F20000C4F20200016821F0F801ED
:1024C000049A526941EAC20101601EE00020C4F290
:1024D000422000210160FFF7E1F90390FFE741F29C
:1024E0000000C4F202000068800700280CD5FFE756
:1024F000FFF7D4F90399401A032804D3FFE7032018
:102500008DF81700EAE1EAE7FFE7FFE7FFE7049845
:1025100000780007002847D5FFE70498806910B3CA
:10252000FFE740F28040C4F2422001210160FFF742
:10253000B5F90390FFE741F22400C4F202000068FD
:10254000800700280CD4FFE7FFF7A8F90399401A89
:10255000032804D3FFE703208DF81700BEE1EAE764
:1025600001F08EF91FE040F28040C4F242200021C9
:102570000160FFF793F90390FFE741F22400C4F2F2
:1025800002000068800700280CD5FFE7FFF786F9F6
:102590000399401A032804D3FFE703208DF817009E
:1025A0009CE1EAE7FFE7FFE704980078400700288E
:1025B00040F1D880FFE700208DF8070041F21C00B1
:1025C000C4F202000068C000002813D4FFE7FFE750
:1025D00041F21C00C4F20200016841F08051016028
:1025E000006800F0805000900098FFE701208DF80F
:1025F0000700FFE747F20000C4F200000068C005D2
:10260000002822D4FFE747F20000C4F2000001686E
:1026100041F480710160FFF741F90390FFE747F251
:102620000000C4F200000068C00500280CD4FFE7D9
:10263000FFF734F90399401A652804D3FFE7032014
:102640008DF817004AE1EAE7FFE7FFE70498C06862
:10265000012809D1FFE741F22000C4F2020001681D
:1026600041F00101016031E00498C06868B9FFE7FA
:1026700041F22000C4F20200016821F00101016072
:10268000016821F0040101601FE00498C06805287A
:102690000DD1FFE741F22000C4F20200016841F0D1
:1026A00004010160016841F0010101600CE041F2A8
:1026B0002000C4F20200016821F0010101600168FC
:1026C00021F004010160FFE7FFE7FFE7FFE704985F
:1026D000C068E0B1FFE7FFF7E1F80390FFE741F2E0
:1026E0002000C4F202000068800700280ED4FFE733
:1026F000FFF7D4F80399401A41F28931884204D394
:10270000FFE703208DF81700E8E0E8E71BE0FFF79C
:10271000C5F80390FFE741F22000C4F20200006810
:10272000800700280ED5FFE7FFF7B8F80399401A95
:1027300041F28931884204D3FFE703208DF8170066
:10274000CCE0E8E7FFE79DF80700012809D1FFE7A3
:1027500041F21C00C4F20200016821F080510160C6
:10276000FFE7FFE70498C069002800F0B380FFE7A7
:1027700041F20400C4F20200006800F00C000828D6
:1027800000F08280FFE70498C06902285CD1FFE76F
:102790006020C4F2422000210160FFF77FF803901F
:1027A000FFE741F20000C4F2020000688001002847
:1027B0000CD5FFE7FFF772F80399401A032804D3FA
:1027C000FFE703208DF8170088E0EAE70498006A25
:1027D000B0F5803F0CD1FFE741F20400C4F20200E3
:1027E000016821F40031049A926811430160FFE707
:1027F00041F20400C4F20200016821F47411049A49
:10280000136A526A1A43114301606020C4F24220E5
:1028100001210160FFF742F80390FFE741F2000059
:10282000C4F202000068800100280CD4FFE7FFF723
:1028300035F80399401A032804D3FFE703208DF8E5
:1028400017004BE0EAE71EE06020C4F242200021BE
:102850000160FFF723F80390FFE741F20000C4F2A4
:1028600002000068800100280CD5FFE7FFF716F88A
:102870000399401A032804D3FFE703208DF81700BB
:102880002CE0EAE7FFE724E00498C069012804D1BE
:10289000FFE701208DF8170020E041F20400C4F2A8
:1028A000020000680290029800F480300499096ADE
:1028B000884208D1FFE7029800F470100499496A31
:1028C000884204D0FFE701208DF8170006E0FFE7FB
:1028D000FFE7FFE700208DF81700FFE79DF81700DE
:1028E00006B080BD80B582B00190019800F0E8FF8D
:1028F00002B080BD82B00190ADF8021002B0704706
:1029000080B584B040F20450C2F200000390002071
:102910000290039800684069C0B2C0090290039811
:1029200090F84100212823D1FFE7029800B3FFE788
:10293000FFE7FFE70398006850E8050F20F08000EC
:102940000190FFE701980399096841E80502002A10
:10295000F0D1FFE7FFE70398806B28B1FFE703980A
:10296000806BFEF735FBFFE7039801F04FF9FFE7B7
:10297000039800684069C0F380100290039890F8B3
:102980004200222823D1FFE7029800B3FFE7FFE7C8
:10299000FFE70398006850E8050F20F04000009022
:1029A000FFE700980399096841E80502002AF0D181
:1029B000FFE7FFE70398C06B28B1FFE70398C06B00
:1029C000FEF706FBFFE7039801F0C4F8FFE704B049
:1029D00080BD000081B0009001B0704780B592B01A
:1029E00040F20450C2F20000119011980068006893
:1029F000109011980068C0680F90119800684069A5
:102A00000E9000200D900C90109800F00F000D908B
:102A10000D9888B9FFE79DF84000800600280AD588
:102A2000FFE79DF83C008006002804D5FFE71198D9
:102A300001F008F9E9E1FFE70D98002800F0C280F5
:102A4000FFE79DF83800C00738B9FFE7BDF83C0044
:102A500010F4907F00F0B680FFE79DF84000C007BB
:102A600058B1FFE79DF83D00C00730B1FFE711986E
:102A7000416C41F001014164FFE79DF840004007CF
:102A800000280BD5FFE79DF83800C00730B1FFE7FD
:102A90001198416C41F002014164FFE79DF840004C
:102AA000800700280BD5FFE79DF83800C00730B13C
:102AB000FFE71198416C41F004014164FFE79DF884
:102AC00040000007002811D5FFE79DF83C00800674
:102AD000002805D4FFE79DF83800C00730B1FFE7B4
:102AE0001198416C41F008014164FFE71198406C76
:102AF000002866D0FFE79DF84000800600280AD530
:102B0000FFE79DF83C008006002804D5FFE71198F8
:102B100001F098F8FFE7119800684069C0F3801051
:102B20000C901198406C0007002804D4FFE70C9823
:102B300000283ED0FFE7119801F00CF811980068CA
:102B40004069400600282FD5FFE7FFE7FFE711980F
:102B5000006850E8050F20F040000B90FFE70B984D
:102B60001199096841E80502002AF0D1FFE7FFE763
:102B70001198C06B98B1FFE71198C06B43F69111A3
:102B8000C0F6000141631198C06BFEF75FFA28B1EF
:102B9000FFE71198C06B416B8847FFE703E011988E
:102BA000FFF718FFFFE703E01198FFF713FFFFE7B8
:102BB00006E01198FFF70EFF119800214164FFE72E
:102BC000FFE722E11198006B012840F0FE80FFE74B
:102BD0009DF84000C006002840F1F780FFE79DF80F
:102BE0003C00C006002840F1F080FFE7FFE700202E
:102BF0000A901198006800680A901198006840686F
:102C00000A900A98FFE7119800684069400600287A
:102C100040F18180FFE71198C06B00684068ADF813
:102C20002600BDF82600002874D0FFE7BDF8260076
:102C30001199898D88426DDAFFE7BDF82600119958
:102C4000C8851198C06B8069202858D0FFE7FFE73E
:102C5000FFE71198006850E8030F20F48070089097
:102C6000FFE708981199096841E80302002AF0D1AA
:102C7000FFE7FFE7FFE7FFE71198006850E8050F5F
:102C800020F001000790FFE707981199096841E8D3
:102C90000502002AF0D1FFE7FFE7FFE7FFE7119801
:102CA000006850E8050F20F040000690FFE7069806
:102CB0001199096841E80502002AF0D1FFE7FFE712
:102CC0001198202180F84210119800210163FFE73C
:102CD000FFE71198006850E8030F20F010000590FE
:102CE000FFE705981199096841E80302002AF0D12D
:102CF000FFE7FFE71198C06BFEF76AF9FFE711984D
:102D0000022141631198818DC28D891A89B2FFF722
:102D1000F1FDFFE779E01198818DC08D081AADF8BB
:102D200012001198C08D00284ED0FFE7BDF81200A8
:102D3000002849D0FFE7FFE7FFE71198006850E857
:102D4000030F20F490700390FFE70398119909682E
:102D500041E80302002AF0D1FFE7FFE7FFE7FFE7C2
:102D60001198006850E8050F20F001000290FFE77D
:102D700002981199096841E80502002AF0D1FFE79D
:102D8000FFE71198202180F842101198002101637B
:102D9000FFE7FFE71198006850E8030F20F01000EC
:102DA0000190FFE701981199096841E80302002AA0
:102DB000F0D1FFE7FFE71198022141631198BDF8B8
:102DC0001210FFF797FDFFE71FE09DF84000000697
:102DD00000280AD5FFE79DF83C000006002804D52E
:102DE000FFE7119801F0C6F80FE09DF8400040069B
:102DF00000280AD5FFE79DF83C004006002804D5CE
:102E0000FFE7119800F0F0FEFFE712B080BD000070
:102E100080B582B040F20450C2F2000000900098E9
:102E200020B9FFE701208DF8070040E00098806995
:102E300008B1FFE700E0FFE7009890F8410040B9D3
:102E4000FFE70098002180F84010009800F034F867
:102E5000FFE70098242180F8411000980068C168BD
:102E600021F40051C160009800F0A0FF00980068B4
:102E7000016921F49041016100980068416921F0E5
:102E80002A01416100980068C16841F40051C160A5
:102E90000098002141640098202280F84120009889
:102EA00080F84220009841638DF80710FFE79DF8F5
:102EB000070002B080BD000070B588B00790002008
:102EC00006900590049003900798006843F600016F
:102ED000C4F20101884240F08580FFE7FFE741F23C
:102EE0001800C4F20200016841F4804101600068EA
:102EF00000F4804002900298FFE7FFE741F21800DB
:102F0000C4F20200016841F004010160006800F0B1
:102F1000040001900198FFE74FF400700390022035
:102F200004900320069040F60004C4F2010403ADAF
:102F300020462946FEF706FB4FF4806003900026EA
:102F40000496059620462946FEF7FCFA40F26C40AE
:102F5000C2F200004421C4F202010160102141606C
:102F600086608021C160066146618661C661FEF7A8
:102F700011FA18B1FFE7FEF723F8FFE7FFE707981C
:102F800040F26C41C2F20001816307984862FFE79A
:102F900040F22840C2F200005821C4F20201016050
:102FA0000021416081608022C260016141618161D4
:102FB000C161FEF7EFF918B1FFE7FEF701F8FFE78F
:102FC000FFE7079840F22841C2F20001C163079869
:102FD0004862FFE725200021FEF776FF2520FEF757
:102FE00069FFFFE708B070BD10B584B040F204502F
:102FF000C2F20000029040F6ED10C2F20000019013
:103000004020ADF80200029890F84200202817D125
:10301000FFE7019820B1FFE7BDF8020020B9FFE704
:1030200001208DF80F000FE002980024046302983D
:103030000199BDF8022000F017FF8DF80F4003E062
:1030400002208DF80F00FFE704B010BD81B00090A2
:1030500001B0704781B0009001B0704781B000901E
:1030600001B07047FFE7FEE782B00090009800686B
:10307000406900F480600121B1EB902F1ED1FFE781
:10308000009800686FF4806141610098002101633D
:103090000098202280F83D20009880F83E1000988B
:1030A000016C41F004010164FFE70098002180F801
:1030B0003C10FFE701208DF8070003E000208DF8A9
:1030C0000700FFE79DF8070002B0704780B588B0A1
:1030D0000690ADF81610049203930698C06A029009
:1030E0000298082809D0FFE70298012805D0FFE7D9
:1030F000029810F5803F07D1FFE706980068016845
:1031000041F4807101600DE00698006B122807D130
:10311000FFE706980068016841F48071016000E0F3
:10312000FFE7FFE70698049B039900914FF0011118
:10313000002200F0A9F880B1FFE706980068006857
:10314000C005002805D5FFE706984FF4007101641B
:10315000FFE703208DF81F003CE006980069B0F5FA
:10316000804F08D1FFE7BDF8160000F0FE00069979
:10317000096808611CE0BDF8160000F44070C00941
:10318000F0300699096808610698049A039B0821A3
:10319000C0F2010100F0F6F820B1FFE701208DF840
:1031A0001F0017E09DF81600069909680861FFE7FF
:1031B0000698049A039B0221C0F2010100F0E2F894
:1031C00020B1FFE701208DF81F0003E000208DF8FB
:1031D0001F00FFE79DF81F0008B080BD80B584B0D8
:1031E000029001910092FFE702980068406900F0A8
:1031F00004000021B1EB900F3ED1FFE70298FFF7EA
:1032000033FF20B1FFE701208DF80F0038E001986F
:10321000013080B3FFE7FEF741FB0099401A0199A6
:10322000884203D8FFE7019820BBFFE702980068B7
:10323000406900F004000021B1EB900F19D1FFE7C5
:103240000298002101630298202280F83D20029814
:1032500080F83E100298016C41F020010164FFE704
:103260000298002180F83C10FFE701208DF80F0044
:1032700006E0FFE7FFE7B7E700208DF80F00FFE764
:103280009DF80F0004B080BD80B586B0DDF820C089
:10329000049003918DF80B200193FFE79DF80E0039
:1032A00001280BD1FFE7049800684069BDF80C10B5
:1032B0000840401AB0FA80F040090AE0049800681B
:1032C0008069BDF80C100840401AB0FA80F040093F
:1032D000FFE79DF80B1088424CD1FFE701980130C1
:1032E000002846D0FFE7FEF7D9FA0899401A01995D
:1032F000884203D8FFE70198D0BBFFE79DF80E0096
:1033000001280BD1FFE7049800684069BDF80C1054
:103310000840401AB0FA80F040090AE004980068BA
:103320008069BDF80C100840401AB0FA80F04009DE
:10333000FFE79DF80B10884219D1FFE704980021A0
:1033400001630498202280F83D20049880F83E1004
:103350000498016C41F020010164FFE7049800210A
:1033600080F83C10FFE701208DF8170006E0FFE72A
:10337000FFE793E700208DF81700FFE79DF817009F
:1033800006B080BD80B586B004900391029201938F
:10339000FFE79DF80E0001280BD1FFE704980068B5
:1033A0004069BDF80C100840401AB0FA80F040099E
:1033B0000AE0049800688069BDF80C100840401AC3
:1033C000B0FA80F04009FFE7002877D1FFE70498C2
:1033D0000068406900F480600121B1EB902F24D196
:1033E000FFE704980068016841F4007101600498E7
:1033F00000686FF4806141610498002101630498C2
:10340000202280F83D20049880F83E100498016C3A
:1034100041F004010164FFE70498002180F83C10AA
:10342000FFE701208DF817004CE0029801300028DA
:1034300043D0FFE7FEF732FA0199401A0299884219
:1034400003D8FFE70298B8BBFFE79DF80E000128FC
:103450000BD1FFE7049800684069BDF80C100840E4
:10346000401AB0FA80F040090AE0049800688069C8
:10347000BDF80C100840401AB0FA80F04009FFE790
:10348000C8B9FFE70498002101630498202280F85E
:103490003D20049880F83E100498016C41F0200112
:1034A0000164FFE70498002180F83C10FFE7012049
:1034B0008DF8170006E0FFE7FFE76AE700208DF8C8
:1034C0001700FFE79DF8170006B080BD80B584B0F7
:1034D000029001910092FFE7029800684069C0B233
:1034E0000021B1EBD01F3DD1FFE70298FFF7BCFDF3
:1034F00020B1FFE701208DF80F0037E0019801307F
:1035000078B3FFE7FEF7CAF90099401A019988429B
:1035100003D8FFE7019818BBFFE7029800684069ED
:10352000C0B20021B1EBD01F19D1FFE702980021F2
:1035300001630298202280F83D20029880F83E1016
:103540000298016C41F020010164FFE7029800211C
:1035500080F83C10FFE701208DF80F0006E0FFE740
:10356000FFE7B9E700208DF80F00FFE79DF80F0097
:1035700004B080BD80B582B0FFE741F21400C4F210
:103580000200016841F001010160006800F00100E3
:1035900001900198FFE70E200021FEF795FC0E2018
:1035A000FEF788FC0F200021FEF78EFC0F20FEF7AF
:1035B00081FC02B080BD00002DE9F04788B00020FA
:1035C0000790069005900490FFE741F21800C4F2BE
:1035D0000200016841F010010160006800F0100075
:1035E00003900398FFE7FFE741F21800C4F20200DE
:1035F000016841F020010160006800F020000290A5
:103600000298FFE7FFE741F21800C4F202000168E8
:1036100041F004010160006800F00400019001988D
:10362000FFE7FFE741F21800C4F20200016841F031
:1036300008010160006800F0080000900098FFE7B2
:1036400041F20008C4F201084FF40056002740463A
:103650004FF400510022FEF709F940F60004C4F2CD
:10366000010402254FF00109204602210122FEF744
:10367000FDF84FF0040A204604210022FEF7F6F878
:103680000496CDF814900697079504AE404631464F
:10369000FDF758FFCDF81090059706972046314664
:1036A000FDF750FF049511200590069707952046D9
:1036B0003146FDF747FFCDF810A0CDF814900697DE
:1036C000079520463146FDF73DFF08B0BDE8F0877D
:1036D00080B540F2B040C2F2000045F60001C4F2ED
:1036E0000001016041F68021C0F206014160002125
:1036F0008160C1604FF48042026141618161C161BA
:103700000162FEF7D1F818B1FFE7FDF759FCFFE7BA
:1037100080BD000080B540F20450C2F2000043F6C4
:103720000001C4F2010101604FF4E1314160002168
:103730008160C16001610C2242618161C161FFF75A
:1037400067FB18B1FFE7FDF73BFCFFE740F20450D1
:10375000C2F200000068C16841F01001C160FFF7CB
:1037600043FC80BD80B501F055FD642003F0FAFDF7
:1037700001F0EAFD01F0BEFD4CF68150C0F60000FC
:1037800001F008FE01F04AFEFFE740F24C50C2F2A1
:10379000000040F20C03C2F200030021202201F0DD
:1037A00007FEFFE701F016FE0028EED1FFE7FFE776
:1037B0004FF4FA7003F0D6FDFEF73EF84AF2F0201F
:1037C000C0F6000000211B2200F0D6FF4AF2DC20E8
:1037D000C0F600000121132200F0CEFF4AF2203093
:1037E000C0F600000321082200F0C6FF4AF20630AE
:1037F000C0F6000004210C2200F0BEFF4AF2403067
:10380000C0F6000002210F2200F0B6FFD0E7000052
:10381000FFE7FEE7FFE7FEE786B00590049103921D
:10382000059800F0070002900298C0F107000528F3
:1038300002D3FFE7042003E00298C0F10700FFE78E
:10384000019002980430062802D8FFE7002002E029
:1038500002980338FFE7009004980199012202FAC8
:1038600001F10139084000998840039B02FA01F1F7
:1038700001391940084306B0704700007047000046
:1038800082B001200190019840F20001C2F20001D3
:103890000968C90844F6D352C1F26202A1FB0212C0
:1038A000910948430090FFE700BFFFE70098411EE1
:1038B00000910028F8D1FFE702B070477047000080
:1038C00080B582B0009000980138B0F1807F03D3BA
:1038D000FFE70120019019E0009801384EF2140131
:1038E000CEF2000108604FF0FF300F2103F0D4F852
:1038F0004EF21800CEF20000002101604EF21000DE
:10390000CEF20000072202600191FFE7019802B0A9
:1039100080BD000080B5FEF74FFA80BD10B590B0B5
:1039200006AC20462821FCF7EDFD00200590049010
:10393000039002900190012006904FF4803107918E
:103940004FF4003208920A9002200D900E914FF42D
:10395000E0100F902046FEF789FC18B1FFE7FDF755
:103960002FFBFFE70F200190022002900020039020
:103970004FF480610491059001A8FEF7C7FA18B1D1
:10398000FFE7FDF71DFBFFE710B010BD704700001B
:1039900080B582B001900198406A009000980021A3
:1039A000C1850098C1840098FFF714F802B080BD6B
:1039B00080B584B00390002002900398406A019083
:1039C000019800684069C0B2C0090290019890F85F
:1039D000410021280AD1FFE7029838B1FFE701989A
:1039E0000021C184019800F011F9FFE701980068F7
:1039F0004069C0F380100290019890F8420022289C
:103A00000AD1FFE7029838B1FFE701980021C1858C
:103A1000019800F09FF8FFE70198416C41F0100118
:103A200041640198FEF7D6FF04B080BD80B586B032
:103A300005900598406A0490059800680068800623
:103A400000285AD4FFE704980021C185FFE7FFE76B
:103A50000498006850E8030F20F480700390FFE79B
:103A600003980499096841E80302002AF0D1FFE7AE
:103A7000FFE7FFE7FFE70498006850E8050F20F034
:103A800001000290FFE702980499096841E80502E5
:103A9000002AF0D1FFE7FFE7FFE7FFE7049800689F
:103AA00050E8050F20F040000190FFE701980499CD
:103AB000096841E80502002AF0D1FFE7FFE7049812
:103AC000202180F842100498006B012814D1FFE7F0
:103AD000FFE7FFE70498006850E8030F20F01000AC
:103AE0000090FFE700980499096841E80302002A62
:103AF000F0D1FFE7FFE7FFE7FFE70498002141630C
:103B00000498006B012805D1FFE70498818DFEF72A
:103B1000F1FE03E00498FFF799FAFFE706B080BDD5
:103B200080B582B001900198406A00900098012110
:103B300041630098006B012806D1FFE70098818D52
:103B40004908FEF7D7FE03E00098FFF783FAFFE786
:103B500002B080BD84B00390FFE7FFE703980068E0
:103B600050E8030F20F490700290FFE70298039949
:103B7000096841E80302002AF0D1FFE7FFE7FFE709
:103B8000FFE70398006850E8050F20F0010001905E
:103B9000FFE701980399096841E80502002AF0D17E
:103BA000FFE7FFE70398006B012814D1FFE7FFE769
:103BB000FFE70398006850E8030F20F01000009022
:103BC000FFE700980399096841E80302002AF0D151
:103BD000FFE7FFE7FFE70398202180F842100398F2
:103BE0000021016304B0704780B582B00190019854
:103BF0000068C16821F04001C1600198202180F86F
:103C000041100198FFF72AFA02B080BD82B00190FE
:103C1000FFE7FFE70198006850E8030F20F0C000BD
:103C20000090FFE700980199096841E80302002A23
:103C3000F0D1FFE7FFE70198202180F8411002B0A2
:103C40007047000080B586B00490049890F8420058
:103C5000222840F0A480FFE704988068B0F5805FD8
:103C600015D1FFE70498006988B9FFE700200390A9
:103C70000498806A02900498006840686FF35F209F
:103C8000029908800498816A0231816225E00498D3
:103C9000806A03900020029004988068B0F5805FED
:103CA00008D0FFE70498806850B9FFE704980069DE
:103CB00030B9FFE70498006840680399087007E08E
:103CC00004980068406800F07F0003990870FFE7DF
:103CD0000498816A01318162FFE70498C18D01393E
:103CE000C1850804002856D1FFE704980068C16820
:103CF00021F02001C16004980068C16821F480713E
:103D0000C16004980068416921F001014161049893
:103D1000202180F842100498002141630498006B30
:103D2000012830D1FFE7049800210163FFE7FFE796
:103D30000498006850E8030F20F010000190FFE79E
:103D400001980499096841E80302002AF0D1FFE7CD
:103D5000FFE7049800680068C00600280ED5FFE75A
:103D6000FFE7002000900498006800680090049825
:103D70000068406800900098FFE7FFE70498818D95
:103D8000FEF7B8FD03E00498FFF760F9FFE70020B5
:103D90008DF8170007E000208DF8170003E00220DF
:103DA0008DF81700FFE706B080BD000080B584B035
:103DB000039003980068006920F4405003990A6852
:103DC000C96808431061039881680269406911431A
:103DD0000843029003980068C06841F20C61884370
:103DE0000299084303990968C8600398006840690C
:103DF00020F4407003990A68896908435061039868
:103E0000006843F60001C4F20101884204D1FFE7D3
:103E1000FEF7C0F9019003E0FEF7AAF90190FFE771
:103E200001981921484303990A6849688900B0FB41
:103E3000F1F048F21F5CC5F2EB1CA0FB0C31490904
:103E4000642301FB1300322303EB0010A0FB0C03DF
:103E5000F02000EA531000EB0110C3F343110844B3
:103E6000906004B080BD000080B588B007900691D6
:103E7000ADF81620069807998862BDF816000799D4
:103E800088850798002141640798222280F8422003
:103E90000798C06B43F62D22C0F600028262079895
:103EA000C06B43F62132C0F60002C2620798C06BB5
:103EB00043F6B112C0F6000202630798C06B41637B
:103EC00006A8049007980168C06B0431049A126830
:103ED000BDF81630FDF7B6FAFFE70020039007980B
:103EE0000068006803900798006840680390039892
:103EF000FFE707980069A0B1FFE7FFE7FFE7079832
:103F0000006850E8030F40F480700290FFE70298C9
:103F10000799096841E80302002AF0D1FFE7FFE7AB
:103F2000FFE7FFE7FFE70798006850E8050F40F05C
:103F300001000190FFE701980799096841E805022F
:103F4000002AF0D1FFE7FFE7FFE7FFE707980068E7
:103F500050E8050F40F040000090FFE700980799F7
:103F6000096841E80502002AF0D1FFE7FFE708B041
:103F700080BD000083B00190019890F84100212895
:103F80003AD1FFE701988068B0F5805F13D1FFE771
:103F90000198006978B9FFE70198006A00900098DD
:103FA00000886FF35F200199096848600198016AF1
:103FB0000231016208E00198016A4A1C0262087835
:103FC000019909684860FFE70198C18C0139C184F3
:103FD000080468B9FFE701980068C16821F0800112
:103FE000C16001980068C16841F04001C160FFE70D
:103FF00000208DF80B0003E002208DF80B00FFE796
:1040000003B0704780B5FEF7E9FC05F0A9FA80BD62
:10401000FFE7FEE780B502F0BFFFBDE8804002F099
:10402000C5BF7047826812B1014601201047704732
:10403000F0B5ADF5397D64AF0646384614460D46F9
:10404000FCF7D6FD02A9384632462B46F56074616E
:10405000009400F01FFC02200DF5397DF0BD80B505
:104060008AB0694603F0D7F80299002818BF0021EA
:1040700008460AB080BD80B58AB0694603F0CBF827
:104080000099002818BF002108460AB080BD000032
:1040900070B5ADF5407D62AD04462846FCF7A8FD3D
:1040A00000206E46E0603046294603F0D8F8B6A9F5
:1040B000304603F0B0F818B103200DF5407D70BD17
:1040C0006D46B6AEB99B5BB1B698BB99BE9A2165F9
:1040D000C4E91202002021462A469847082806D142
:1040E0002846314603F097F80028EBD0E4E706288D
:1040F00003D0092818BF0320DFE762A869462246DB
:10410000002300F073FB0220D7E710B5ADF5387D32
:10411000044664A8FCF76CFDE3683BB964A802A9F7
:104120002246012300F062FBFCF763F9D4F814C0C7
:1041300064A802A92246CDF800C000F0ABFBFCF752
:1041400058F970B5049C1646052905460AD0012980
:1041500015D059BB0F2E4FF002001FD8F3B92846D7
:10416000314604E056EA030017D128468F21224643
:1041700003F05FF8002818BF0120400070BD03F075
:10418000FB00012809D1012B05D10F2E05D82846A7
:1041900003F092F803E01F2E01D9022070BD06F54E
:1041A00080712846224603F01FF8E3E7FCF721F967
:1041B0002DE9F04F81B09A42044680F0EF801D4611
:1041C0008A460026E946042782F003001AF9000017
:1041D00002F1010B00285FFA80F817D420460D2168
:1041E0004A4603F026F84FEA88000099C0B26FF003
:1041F000030250405FEA486258BF07EB880042184C
:10420000009220460D2103F075F880E008F0F000E0
:1042100080380009052800F2CF80DFE800F0031C99
:1042200029374F6AAB4580F0C7808BF003014FEA16
:1042300008301AF8011080B240EA0113002B00F098
:10424000BB8008F0080002F1020B46EAD0062046C7
:1042500000211A4618E008F00D000D2800F0AC808F
:1042600008F00F0120464A4602F0E3FF009AC8E733
:1042700008F00700202101FA00F0103808F00801CA
:1042800040EAC1222046002100233EE0A8F1B0010F
:10429000072941D80920DFE801F07F04466C7B8CB8
:1042A0008C8CAB4580F088808BF003001AF80030CE
:1042B0000F2B00F2818002F1020BC8E708F0FE002C
:1042C000C82879D18BF003001AF80010A8F1C800B3
:1042D000B0FA80F040090B0943EA001001F00F0129
:1042E00043181F2B68D841EA004002F1020B421C20
:1042F00008E05FEA08705FD4012108F00700C0F20F
:104300000801421820460121052300F057F8AB456B
:104310005A46FFF459AF3FE0012108F00700C0F210
:104320000801421830E0B04600270020AB4543D2D8
:104330008BF003011AF901100BF1010601F07F0265
:104340008240174307300029B346EFD420460D21A1
:104350004A4602F06EFF00980D2100EB870000F541
:1043600001722046009202F0C5FFB346464604277C
:10437000CDE78BF003001AF8000002F1020B40EACF
:10438000003000F00F10421C204601210123BCE741
:1043900020460521002277E7F00709D16A4620462A
:1043A0000E2102F046FF009A20460F2102F0A2FFE4
:1043B000082001B0BDE8F08F0920FAE72DE9F041AF
:1043C00086B01E4615460529044630D0012943D043
:1043D00000297DD1002E49D102AA20460D2102F0EC
:1043E00028FF002842D100270DF11408002600BF45
:1043F00025FA06F0C00713D00298324650F8041B85
:1044000000230290059120460021CDF8008000F0A5
:1044100061F858BBA6F10D00B0FA80F040090743DF
:104420000136102EE4D1F80748D000201FE055EAED
:1044300006001BD102AA20460D2102F0FAFEA8B9FF
:10444000029A204652F8045B0D21029202F052FFBC
:1044500020468F212A4634E006F0FB00012805D1D2
:1044600005AA20460D2102F0E4FE18B1022006B094
:10447000BDE8F081A8B2C8B12F0C00EB15450DF1D5
:10448000080800BF05983A4600F10801059103C8E5
:104490003346CDE9020120460121CDF8008000F02D
:1044A00019F80028E2D10137AF42EBD3012E03D136
:1044B0000598021D059202E0059A00E0029A204646
:1044C0000D2102F017FF002818BF01204000CEE7A1
:1044D000FBF78FFF70B5049E1546052904460BD0E7
:1044E000012916D069BB0F2D4FF0020020D8FBB96F
:1044F00032682046294605E055EA030017D13268A4
:1045000020468F2102F0F6FE002818BF012040004F
:1045100070BD03F0FB00012809D1012B05D10F2D3F
:1045200005D8204602F0C8FE03E01F2D01D9022065
:1045300070BDD6E9002305F58071204602F0BFFE6C
:10454000E2E7FBF756FF000080B582B08DF8070068
:1045500000919DF8070000F0B3F84AF64070C0F6ED
:10456000000000F017FF00F065FF40F24C50C2F26F
:1045700000000021C0F89C10009800F011FE00F02F
:10458000DBFD02B080BD000010B586B0ADF81600AE
:10459000049100200290ADF8060000900498FBF70B
:1045A0002EFE0390BDF91600B0F1FF3F3EDCFFE7A1
:1045B000BDF916004142C0EB5170C0100290BDF829
:1045C0001600029900EBC100ADF80600029C00F055
:1045D000A1FEB4EBD00F01D3FFE76FE000F09AFE2D
:1045E0000299C1EBD000013000900499009A40F28A
:1045F000A524C2F200042046FBF720FE009800210B
:1046000021544AF26430C0F6000000F0C3FE029864
:10461000BDF80610C1EBC00081B240F24C50C2F2AE
:1046200000003E22234600F0A3FE47E0BDF916003D
:1046300000EB5070C010029002980399884201D399
:10464000FFE73BE0BDF816000299A0EBC100ADF812
:10465000060003980299401A0090009C00F05AFE50
:10466000012101EBD000844207D9FFE700F052FEA0
:10467000012101EBD0000090FFE70498029901446A
:10468000009A40F2A524C2F200042046FBF7D6FDB2
:104690000098002121544AF26430C0F6000000F076
:1046A00079FEBDF80600404281B240F24C50C2F2A1
:1046B00000003E22234600F05BFEFFE706B010BD7F
:1046C00080B582B00021ADF806103021ADF804109D
:1046D0008DF803009DF8030004284AD8DFE800F0B5
:1046E00003111F2D3B004CF62E30C0F6000000F0E9
:1046F00051FEBDF80600BDF80410452200F076FE1C
:1047000037E04CF62E30C0F6000000F043FEBDF856
:104710000600BDF80410412200F068FE29E04CF6C6
:104720002E30C0F6000000F035FEBDF80600BDF8E2
:104730000410402200F05AFE1BE04CF62E30C0F66A
:10474000000000F027FEBDF80600BDF8041043226B
:1047500000F04CFE0DE04CF26050C0F6000000F09E
:1047600019FEBDF80600BDF80410432200F03EFE1D
:10477000FFE702B080BD000080B584B003908DF8E3
:104780000B10019200F0C6FD4042ADF80200039804
:10479000FBF735FDADF80000FFE700F03FFEFFE757
:1047A0009DF80B000199FFF7CFFEBDF902000399B8
:1047B000FFF7EAFEFFE700F00DFE0028F0D1FFE76B
:1047C000142002F0CFFDBDF802000230ADF8020067
:1047D000BDF90200BDF90010C9000131884201DDB8
:1047E000FFE700E0D9E704B080BD00002DE9F04705
:1047F0008CB00C46014620469A46154602F02FFD25
:1048000001260DF12C080DF1040900BF1AF001007A
:104810004FF0010718BF022708D03EB92A69204689
:104820004FF0FF3102F066FD4FF0000A20466FF0B6
:104830000101424602F0FDFC2046494602F0EBFC35
:1048400020BB049B7BB101980699099A2965C5E9AB
:1048500012023846294622469847082805D10B9867
:10486000296A884205D0013ED0E7072803D00928ED
:104870000CD1FBF7BEFD6A4620464FF0FF3102F037
:10488000D8FC00982861204602F00DFD0CB0BDE870
:10489000F08700002DE9F0418CB00E46014630460D
:1048A0001C46154602F0DBFC02A9304602F0B3FCC0
:1048B00010B10CB0BDE8F081DDF8488002AF00BF58
:1048C00001200A212A462B460096CDF80480A047F5
:1048D0000028EED1059B93B1029807990A9A2965A1
:1048E000C5E912020920294632469847072803D015
:1048F000082804D00AE000BF304602F0D4FC30465D
:10490000394602F088FC0028DAD0D2E70528D0D159
:1049100001201A212A462B460096CDF80480A04794
:10492000C7E701F0EEBF80B5AFF300800821BDE816
:10493000804002F06BB880B5AFF300800C21BDE879
:10494000804002F063B803C844F64E42C0F243020E
:10495000000A82EA112240EA016042F62B31C4F2D9
:10496000437148401043B0FA80F04009704740F26C
:10497000A001C2F20001884238BFFBF7BCBC01F5C0
:104980000071884201D200F0D7BAFBF7B4BC10B571
:1049900082B0044600284FF0000008BF01240190B7
:1049A00001A808212246FBF7CDFC019810B920464A
:1049B00000F076FB02B010BD2DE9F04F8DB00E4631
:1049C00018219A4690460446FBF79CFD032016F0FA
:1049D0000107207608D1B00740F1818106F00C0074
:1049E0000C2805D1022045E116F00E0F40F077812A
:1049F000DDF858904846FFF732FB002800F0398177
:104A00000546E0600020CDE904670C900CAF4846F5
:104A100000210F220023CDF820800097FFF791FBA3
:104A20000C9820F001084846FFF725FB15F8011BFC
:104A300006466FEA00090CA80C9500F0AFF90C9936
:104A4000002811F8012B08BF30460790FF2A4FF0CD
:104A500000000694CDF80CA00BD0002211F9013B08
:104A600003F07F0787403A43002B00F10700F5D49D
:104A7000881811F8015B099008EB090B002000224F
:104A80000C9100BF11F9013B03F07F0787403A43C7
:104A9000002B00F10700F5D401EB02090BAE0C91DD
:104AA0000B9100BF494524D23046294600F076F9E3
:104AB00080463046294600F071F982463046294644
:104AC00000F06CF90B990023002200BF11F9017B63
:104AD00007F07F049C402243002F03F10703F5D425
:104AE000D8450B9103D80AEB08039B4505D3C34572
:104AF000D8D20898039900F044F9002800F0BC804F
:104B00000799DDF818B00844002ACBF8100000F02F
:104B1000B78009EB0200A0F101080498039C00F0A3
:104B20000800059004F158004FF000094FF0FF36DF
:104B3000079000BF00210020C24600BF1AF9012BD8
:104B400002F07F038B401843002A01F10701F5D4DE
:104B5000D2B206FA01F32029064638BF1E43510699
:104B600058BF0646012E37DB0998002800F0C880A0
:104B7000A0EB86000168002900F08880006800BF73
:104B8000002800F083800546089810B3204603C82B
:104B900000BF44F64762C4F24C32514042F6013243
:104BA000C4F22B3250400843079808BF54F8240C35
:104BB00000280A9000F0A88054F8201C002900F07A
:104BC000A38028680AAA036928469847002840F06D
:104BD000898048462EE000BFB6FA86F0400940EAD8
:104BE00009003EB3059929BB089800284ED02046FD
:104BF00003C800BF44F64762C4F24C32514042F64B
:104C00000132C4F22B3250400843079F08BF54F8CA
:104C1000247C002F78D054F8203C002B74D0F5175A
:104C2000099A304629460097019400F05FF9002860
:104C300048465ED100220021534600BF13F9017B94
:104C400007F07F0696403143002F02F10702F5D4AA
:104C50004FF0FF36FBB206FA02F7202A0A4638BFA9
:104C60003A435B0658BF0A4672B30AEB0208814614
:104C700060E70820207632E00699082008762EE0CA
:104C800005990820002908BF06201AE0F017CBE993
:104C900000602046CBF8088003C800BF44F6476296
:104CA000C4F24C32514042F60132C4F22B32504031
:104CB000084304BF54F8240C07900798CBF814005D
:104CC00006208BF818000AE00821C00718BF06214B
:104CD000049A0820920758BF01468BF818100DB0AF
:104CE000BDE8F08FF017CBE900600A98CBF8088098
:104CF000E4E7CBE90065CBF80880CBF81470DFE778
:104D00000898214600F03DF8204601F029FF54F8AC
:104D1000140C01F0F7FD10B50446283001F020FF17
:104D2000606901F0EFFDF0B583B015460C460290C6
:104D300002AE084600210022002300960027FFF75C
:104D4000C9FB28680021029020460122002300961A
:104D5000FFF7C0FB2D69204600210F220023029798
:104D60000096FFF7EEF90298002100F001002843B9
:104D7000029020460F2200230096FFF7ABFB03B002
:104D8000F0BDB0B5054608460C4601F0E9FE1DB180
:104D900054F8140C01F0B6FD01F01CFE70B5FF29AB
:104DA0001CD001F00F020C2A00F29380D0F800C052
:104DB000DFE802F028394B07178F8F8F8F526D076E
:104DC00017009CF800209CF802309CF803609CF8C7
:104DD000015043EA062342EA05221FE04FF0000E8D
:104DE00075E09CF800209CF802309CF803609CF869
:104DF000015043EA062342EA052242EA034E0CF13F
:104E000008064CE09CF800209CF802309CF8035007
:104E10009CF8014043EA052342EA042242EA034E99
:104E20000CF104063BE000224FF0000E664600BF86
:104E300016F9013B03F07F0494404EEA040EB3F1EF
:104E4000FF3F02F10702F3DD29E09CF800209CF807
:104E5000013042EA032E20E000230022664600BF14
:104E600016F9014B04F07F059D402A43002C03F105
:104E70000703F5D44FF0FF359646E4B29D40202B52
:104E800038BF4EEA050E630658BF964607E09CF908
:104E900001209CF8003043EA022E0CF10206C1F317
:104EA00002123AB1032A05D0012A12D1BEF1000F35
:104EB0000AD0E644BEF1000F06D049B2B1F1FF3F7F
:104EC000D8BFDEF800E001E04FF0000E066070464B
:104ED00070BDFBF78EFA012803D101F1580001F0F3
:104EE0005CBF80B551F8140C01F00CFD2DE9F041C8
:104EF00082B0E2B1DDF82080C0431C4602EB8000A6
:104F000001AD00BF076867B1061D006800BF0168FA
:104F10002A460B692146CDF8048098470028304680
:104F2000F0D0B7FA87F0400902B0BDE8F0810998E7
:104F300001F016FE01F04EFD2DE9F04140F2A02CEB
:104F4000C2F2000CDCF8003040F2A00E011FC2F2E9
:104F5000000ECBB10EF50072934215D000244FF431
:104F600000781A46568802EB86078F4214D030F834
:104F7000027C01EB8705954214D0158814460EEB90
:104F80008502B8EB850FEDD1A3EB0E0080080880F9
:104F9000CCF80010BDE8F08130F8020C30445080AD
:104FA000BDE8F081BB1920F8023C2CB1A1EB0E004A
:104FB00080082080BDE8F0811088CCF800100880BF
:104FC000BDE8F0812DE9F04F8BB00446C06C8B46F4
:104FD000056801A9584602F01EF9002894F850000F
:104FE000039F18BF0027C00748D13E68002E45D058
:104FF000280E40F0020000F00F0003283CD105F01D
:10500000706000900098B0F1407F03D157F8049F82
:1050100003E000BFB7F80290B6B2002006F0010A24
:10502000D4F84880019058460F2101AA3D1D69F32C
:10503000410A02F0FEF8BAF1020F05D22F463E688F
:10504000002EDFD11AE000BF28D1019829F001011C
:1050500020F001004144814207F10807EFD826F013
:10506000010211448842EAD22968480061F31E0017
:10507000411C11D0023011D109200AE0584602F03B
:105080006DF901460920002908BF0520012908BF44
:1050900008200BB0BDE8F08F0620FAE7FBF7A9F96E
:1050A000F0B540F2A02CC2F2000CDCF8003040F267
:1050B000A00EC2F2000E3BB98021C0F27F01734600
:1050C00043F8041FCCF800300EF500718B421AD063
:1050D00003300122810802EB900400224FF4007596
:1050E0005E881846331B03F00107234688BF3B4404
:1050F000B3420AD3B14213D302880EEB8203B5EB5D
:10510000820F0246ECD10020F0BDF11A418089B235
:1051100000EB8102002720F82170101D5380F0BDA4
:105120000188002A12BF11800EEB8101CCF800101B
:10513000002120F8041BF0BDB0B584B040F24C5003
:10514000C2F2000003904AF23C30C0F60000029028
:10515000039CD4F89C0020B9FFE7204600F092F8A9
:1051600006E0D4F89C50204600F08CF82844FFE775
:10517000ADF80600BDF80650204600F08BF8024658
:10518000029B2046294600F013F90299204600F0C0
:1051900099F8D4F89C100844C4F89C0004B0B0BD41
:1051A00070B588B040F24C51C2F2000107910690F0
:1051B000079CD4F89C0020B9FFE7204600F062F875
:1051C00002E0D4F89C00FFE7ADF81600069901ADA7
:1051D000284601F031FB284601F064F806462846CF
:1051E00001F0E9F80496BDF81650204600F052F898
:1051F0000246049B2046294600F0BAF8049920464E
:1052000000F060F8D4F89C100844C4F89C0008B082
:1052100070BD000080B582B040F24C50C2F2000078
:10522000019001208DF803009DF80300C00750B1E4
:10523000FFE741F20000C4F201004FF400510122E7
:10524000FCF714FB09E041F20000C4F201004FF446
:1052500000510022FCF70AFBFFE702B080BD00000E
:1052600010B582B001900091019C204600F0FAF840
:105270000020C4F89C000099204602F093FB2046D1
:1052800002B010BD81B000900098B0F8980001B055
:105290007047000081B000900098B0F89A0001B00B
:1052A0007047000080B582B00190019803F084FC43
:1052B00002B080BD80B582B00190019802F0FAF88A
:1052C00002B080BD80B582B0019000910198009934
:1052D00002F062FA02B080BD80B582B00190002079
:1052E0008DF8030001989DF8031003F07DFC02B0D7
:1052F00080BD000081B040F24C50C2F2000000902E
:10530000009849F21941C0F60001C0F8941001B0AC
:105310007047000081B040F24C50C2F20000009093
:105320000098B0F8440001B07047000080B582B02A
:10533000019001980021A0F89810A0F89A1004F0AC
:1053400063F802B080BD000010B582B040F24C504E
:10535000C2F200000190019C2046FFF7A3FF204607
:10536000FFF7A8FF2046FFF7B7FF02B010BD00000F
:1053700080B584B00390ADF80A10ADF80820019311
:105380000398BDF80A10BDF80820019B02F08CF9C3
:1053900004B080BD80B582B040F24C51C2F2000131
:1053A000019100900198009902F082FA02B080BD4C
:1053B00080B584B00390ADF80A10ADF808200193D1
:1053C0000398BDF80A10BDF80820019B02F084F98B
:1053D00004B080BD80B582B040F24C50C2F20000F3
:1053E0000190019802F018FA02B080BD80B584B037
:1053F00040F24C53C2F200030393ADF80A00ADF83B
:105400000810ADF806200398BDF80A10BDF8082072
:10541000BDF8063002F062F804B080BD80B582B0FD
:1054200040F24C50C2F200000190019802F06CF979
:1054300002B080BD82B040F24C50C2F20000019038
:105440003320ADF802002A20ADF800000198BDF825
:105450000210A0F89810BDF80010A0F89A1002B041
:105460007047000010B582B00190019C48F6AD4035
:10547000C0F60000C4F894002046FFF757FF20460E
:1054800002B010BD80B584B0DDF818C00290019163
:105490008DF803208DF802308DF801C0029803903A
:1054A000019900F08DF80021C0F80C11202280F83D
:1054B00010210A2280F8112180F8121180F81311AE
:1054C00000F58A7100F23312FFE7002301F8013B77
:1054D0009142FAD1FFE70021C0F834119DF8031082
:1054E00080F810119DF8021080F811119DF801103C
:1054F00001F0010180F81211039804B080BD000092
:1055000080B582B00190019800F088F802B080BDAB
:1055100085B040F2F022C2F20002039202900191A3
:105520000398416821B9FFE700208DF8130045E09A
:10553000C1680269891A0091009941B9FFE7017AAF
:10554000C90721B9FFE700208DF8130036E0009964
:10555000019A91420AD2FFE7017AC90711B1FFE728
:10556000019901E00099FFE70191FFE7FFE7019949
:105570004A1E0192F1B1FFE702994A1C0292097892
:105580004269531C436111704168C2684369114408
:105590008B4203D3FFE741684161FFE7C1680269BD
:1055A0008A4203D2FFE70169013101E00199FFE777
:1055B0000161DCE701208DF81300FFE705B07047BB
:1055C00010B586B00490039101208DF80B00049C67
:1055D00005940020207060602072E06020616061AE
:1055E000A061039801F014FA0190019808B9FFE74F
:1055F00011E001202070019860600398E0609DF840
:105600000B0000F0010020720020206160686061E2
:105610006068A061FFE7059806B010BD10B582B0C4
:105620000090009C01942078C00738B1FFE76068C3
:1056300018B1FFE701F0E6F9FFE7FFE7002060603F
:10564000019802B010BD012180F84C107047B0B530
:105650000C4621F00F01B1F5887F054610D0B1F559
:10566000807F24D195F84D00D8B995F84C100120D1
:1056700085F84D0005F1500089B1FBF7C9FA10E03B
:1056800095F84E0030B9012085F84E0005F1D8009C
:10569000FBF7C2FA05EBC400A0F5F56005E0FBF7E7
:1056A000B3FA05EBC400A0F5F66003C8B0BDFAF785
:1056B000A0FEF0B581B00E4621F00F011C46154644
:1056C000B1F5887F074610D0B1F5807F26D197F8D5
:1056D0004D00D8B997F84C10012087F84D0007F11C
:1056E000500089B1FBF794FA10E097F84E0030B9FA
:1056F000012087F84E0007F1D800FBF78DFA07EB81
:10570000C600A0F5F56005E0FBF77EFA07EBC600E2
:10571000A0F5F660C0E9005401B0F0BDFAF769FEEB
:1057200090F88101704710B582B004460021D0F88E
:10573000780101910091694601AA01F057FEDDE967
:10574000002301462046FEF733FD0838B0FA80F00A
:10575000400902B010BD21F01F00A0F58070B0FA22
:1057600080F04009704780B50168CA684FF0FF318A
:105770009047002080BD084600F0A4B92DE9F04F05
:1057800081B053685FEAD30C00F07F80D2F800E06C
:105790000027634607EB53050EEBC5041EF8358062
:1057A00094F8019094F802A0E27848EA09284AEABD
:1057B000022648EA064602F0400246EA42622244D5
:1057C0006FEA53041C448A4294BF6F1C5C08002C8F
:1057D0002346DFD1002F58D067450EEBC70102D119
:1057E0004FF0FF3C13E0FA000EEB02031EF802201C
:1057F0005F789E78DD7842EA072246EA052742EA8A
:10580000074205F0400742EA476202EB030C11F839
:10581000088D0E1D39D03378B778F578747847EA5B
:10582000052743EA042343EA0743012B75D091F887
:10583000019091F802A091F803E0002BCDF800A0B0
:1058400025D403F0804443EA4404A519A45D6E788E
:10585000AF78EA7844EA062447EA022244EA02449E
:10586000B4F1FF3F15DD04F0804244EA42022C46C9
:1058700054F8046F02EB050A320E04EB8202141D89
:1058800000272E464FF0000B31E0002048E01C4678
:1058900000E02E46C4F30365022D4FEAD3770FD004
:1058A000012D14D0002D3ED1002446F6193A4FF0B8
:1058B000000BB3F1FF3FC8BF341DC0F6000A16E06D
:1058C00046F6293AC0F6000A4FF0010B05E046F60D
:1058D000213AC0F6000A4FF0000BC4F3074506EB6F
:1058E0008502B3F1FF3F02F1040400DCDDB9009D45
:1058F00048EA092245EA0E2542EA05420EF0400533
:1059000042EA456211446BF34107C0F87861C0E98F
:10591000561CC0E9584AC0F86C71581E18BF0120C7
:1059200001B0BDE8F08FFAF764FDB0B584B004466D
:1059300000680D46C26820464FF0FF31904720F0C6
:10594000010050B340F20001C0F20001A0EB0505D8
:1059500079B103A902AA2846AFF30080B0FA80F11A
:1059600000284FEA511014D1DDE90221CDE90012DF
:105970000FE041F2103041F27071C0F60100C0F644
:1059800001010090081A4FF00101019018BF4FF07B
:10599000FF30C00718BF002904D1012084F880011E
:1059A00004B0B0BD6A4620462946FFF7E7FE00284E
:1059B000F3D0F5E7B0B5054690F8800108B10024B2
:1059C0000EE02846FFF7AFFE0446012808D12868FC
:1059D0000121426B2846904795F880010028EED1BE
:1059E0002046B0BD80B50C2906DD0F2908D00E2950
:1059F0000AD00D2906D009E08A1C03D04A1C05D123
:105A0000443008E03C3006E0403004E00C2904D883
:105A1000083000EB8100006880BDFAF7EAFC10B5A1
:105A200000F10804204600F017FA2046BDE81040B7
:105A3000FBF71ABA80B50C2906DD0F2908D00E290C
:105A40000AD00D2906D009E08B1C03D04B1C05D1D0
:105A5000426480BDC26380BD026480BD0C2903D84E
:105A6000083040F8212080BD8F2904BF826480BDAA
:105A7000FAF7BFFCB0B590F8802122B10846282182
:105A8000FAF740FDB0BDD0F86C4100F5B075D0E933
:105A900056CE2CCD4C6101F108042CC4C1E900CED6
:105AA00000F5B875D0F87C012CCD486201F11800E2
:105AB0002CC0B0BD02310020122938BF0120704730
:105AC00070470000811C612900F26A804AF2D920E7
:105AD000C0F60000DFE811F062007D007E0080006B
